:10000000F03F0000110000100000000000000000A0
:10001000F8B509F04FFB09F0B1FA0A484568002627
:100020000746002404E0A0003858A1007050641C6A
:10003000282CF8D300204560A84700BF00BF00BFB0
:1000400000BFF8BD00040010000000000000000028
:1000500000000000000000000000000000000000A0
:100060000000000000000000000000000000000090
:100070000000000000000000000000000000000080
:100080000000000000000000000000000000000070
:1002C000000300000000000000000000000000002B
:1002D0000003000000B900000003000000B90000A6
:1002E00000C00000000400000100010002008400C2
:1002F00001015649454E4E41000000000300000038
:1003000000000000000000000000000000000000ED
:1003100000000000000000000000000000000000DD
:1003200000000000000000000000000000000000CD
:1003300000000000000000000000000000000000BD
:1003400000000000000000000000000000000000AD
:10035000000000000000000000000000000000009D
:10036000000000000000000000000000000000008D
:10037000000000000000000000000000000000007D
:10038000000000000000000000000000000000006D
:10039000000000000000000000000000000000005D
:1003A000000000000000000000000000000000004D
:1003B000000000000000000000000000000000003D
:1003C000000000000000000000000000000000002D
:1003D000000000000000000000000000000000001D
:1003E000000000000000000000000000000000000D
:1003F00000000000000000000000000000000000FD
:10040000F03F00005709001000000000000000004D
:1004100000000000000000000000000000000000DC
:1004200000000000000000000000000000000000CC
:100430000000000000000000D50500101775001036
:100440000B3A00005509001055090010550900101D
:10045000550900106D8F00108B8F0010A72700101A
:1004600055090010550900105509001055090010D4
:10047000550900100B160010C9270010EB270010BB
:100480000D280010550900105509001055090010DD
:1004900055090010550900105509001055090010A4
:1004A0005509001055090010550900105509001094
:1004B0005509001055090010550900105509001084
:1004C00003B40148019001BDA53A000003B40148FE
:1004D000019001BDC100000003B40148019001BDBD
:1004E000F100000000F002F800F040F80CA030C865
:1004F000083824182D18A246671EAB4654465D46A0
:10050000AC4201D100F032F87E460F3E0FCCB64629
:100510000126334200D0FB1AA246AB4633431847AC
:10052000D0B4000030B50000103A02D378C878C1CA
:10053000FAD8520701D330C830C101D504680C6025
:10054000704700000023002400250026103A01D344
:1005500078C1FBD8520700D330C100D50B6070477B
:100560001FB5C046C0461FBD10B510BD0AF034FA15
:100570001146FFF7F5FF00F005FA0AF04CFA03B454
:10058000FFF7F2FF03BC00F034FA000002B472B6C9
:1005900001780131017062B60139080002BC704770
:1005A00002B472B601780139017062B6080002BC6B
:1005B0007047000062B6704772B670471C3880F30F
:1005C00009887047014802490160704704ED00E066
:1005D00000000010114B1968114A1268914216D0A0
:1005E000EFF3098020380860F0C044464D46564677
:1005F0005F46F0C01A6010681030F0C8A046A946E7
:10060000B246BB462038F0C8103080F30988054B4D
:10061000002018700420404200470000B40200008F
:10062000B0020000A3020000FCB40022002300245A
:10063000002500260027062902D4FCC00639FAE767
:10064000002902D004C00139FAE7FCBC7047000061
:1006500070B505460C46164602E00FCC0FC5103E9D
:10066000102EFAD2082E02D303CC03C5083E042E66
:1006700007D301CC01C5361F03E021782970641C23
:100680006D1C761EF9D270BD30B503460020B04C0B
:1006900001465A569200121952684D00AA40491C50
:1006A0001043C9B21029F4D330BDF8B504460E4644
:1006B00017461D461021104609F034FF0698807831
:1006C000A04254D80699C978A14250D3201AC1B289
:1006D0000024E878AA7803E0091A1319C9B2DCB239
:1006E0008842F9D9601E10182B7AC0B2834204D810
:1006F000981AC4B2601E1018C0B2002E0AD0012E83
:100700000FD0202833D3202C1FD22022121BD2B28C
:1007100000241DE0102C2AD2102800D30F20002224
:1007200023E0202C23D2102821D3102C04D2102215
:10073000121BD2B2002402E0103CE4B200222028B6
:1007400001D30F2011E0103803E00022203CE4B276
:100750002038C0B209E0EB786E685343F318CB5CE5
:100760003B55641C521CE4B2D2B28442F3D9F8BDAA
:1007700078B56C4603462170002062701C0101466A
:100780006E46012573567F22002B04DB1A1B520094
:1007900052B2002A02DB2B4693401843491C49B24F
:1007A0000229EFDB78BDF0B517460024012205468B
:1007B0000E468A5687B031572046FFF7D9FF05907D
:1007C0002E2D08D2102D02D26800012484400598F5
:1007D000204307B0F0BD3A78AA4211D87878A842F1
:1007E0000ED30020717A03E0A400641C401CC0B248
:1007F0008142F9D8A81A4843410020468840E8E7DA
:10080000334601AA002128460097FFF74EFF01A8B2
:10081000FFF73AFF05990843DBE7F0B517460122D9
:1008200005460E4600248A5687B031570120FFF74F
:100830009FFF05902E2D08D2103D102D02D268008A
:100840000124844005982043C3E73A78AA4217D888
:100850007878A84214D30020717A03E0A400641CC5
:10086000401CC0B28142F9D8A81A4843410020393F
:1008700002D420468840ACE749422046C840A8E759
:10088000334601AA012128460097FFF70EFF01A871
:10089000FFF7FAFE059908439BE7F0B517460122DA
:1008A00005460E4600248A5687B031570220FFF7CE
:1008B0005FFF05902E2D08D2203D0E2D02D268003C
:1008C000012484400598204383E73A78AA4217D848
:1008D0007878A84214D30020717A03E0A400641C45
:1008E000401CC0B28142F9D8A81A4843410040399F
:1008F00002D4204688406CE749422046C84068E759
:10090000334601AA022128460097FFF7CEFE01A830
:10091000FFF7BAFE059908435BE770B504460D463C
:10092000007AA1784018401E09F00AFE617A064656
:1009300008462D3009F0FAFD2E30A870E178714399
:100940004118491EE9702E212970401E687070BD43
:10095000C0AC0010FEE710B5FFF7C4FD10BD10B528
:1009600006F029FA194B1A4A00211A4806F053FCDE
:10097000174A194B521C0021184806F04CFC06F08F
:100980003DFA10BD10B508F008FEFFF799FD08F01C
:10099000B9FE08F00CFD08F0DDFE08F085FA08F05D
:1009A00049FB00F0B7FC0E48012301780D481A46B8
:1009B000007809F043F807F0FBFA012200210A4809
:1009C00009F092FAFFF7CBFF012010BDBC0900002F
:1009D0000990010055140010FC0F00008D16001046
:1009E000FFB00010FEB00010F07F00400A46034642
:1009F0007047FEE7FE4A10705160704710B5002244
:100A0000D2430921FB4809F068FD10BDF0B54178DB
:100A100001290FD0002300220178FF24F64D9446CF
:100A2000002905D001290BD0022907D0032903D0C2
:100A30002A4605E0FF23EEE7002401E0FF218C4673
:100A400000210F468D05ED4E2D0CAD196F62AB6286
:100A50006C602A626646AE60491C89B20629F1D3F1
:100A60008178E74AC9005358E1494C682402240AB6
:100A7000234329246406A36380780978C000801882
:100A800040684907490F0843DE490860F0BDDE4A67
:100A900000218B00C3581360491C0C29F9D37047FF
:100AA00010B5DA4B00218A008458D2181462491C10
:100AB000C9B20A29F7D310BD10B5028BD249521E14
:100AC00040310A60428B521E4A60026A521E8A609E
:100AD000036AC269D21A521ECA60C289CA49521E2A
:100AE00080314A614269521E8A6143690269D21AA1
:100AF000521ECA61828C521E0A62C28C521E4A6207
:100B0000C26A521E8A62C36A826AD21A521ECA62BC
:100B10000388BF4A5B1E136343885B1E536383686D
:100B20005B1E9363846843681B1B5B1ED363028E4A
:100B3000521E0A63428E521E4A63826B521E8A63A1
:100B4000426B806B101A401EC863012010BDF3B5C4
:100B500081B00826AF4DB048019909F0E7FC47087D
:100B60007F007D2174423846C90048430090AB485D
:100B7000AB4960434018009909F0E2FC0199081A5A
:100B800000D54042A84202DA264605460836641CD3
:100B9000082CECDB029806703846FEBDFEB5054613
:100BA00008460E4624300C460F4601910090303620
:100BB00018340C3768883E31FFF7C9FF6060400881
:100BC000A060287829794018608001202080297A47
:100BD0006A7A8A1801998A6061884A0001994A8074
:100BE00061684A0801994A60297A521C521A01998F
:100BF0000A8030800F207080A068801E000970601D
:100C0000697909F093FC70604008B0606979A06868
:100C100009F08CFC01462A7860685043401C091892
:100C20000122AA5670685043401C091A0098491EB8
:100C300001806979A06809F079FC0146009841605B
:100C4000B1680098491C816028796979484341005E
:100C5000009841806068B86060686288411C521CDE
:100C60005043A0300818786065684019401E294636
:100C700009F05CFC68437860616889084018786016
:100C800060887880FEBD604A10B5803A116B0446DA
:100C90008079002800D08020090E090601437120C8
:100CA00001431163E1683C20085EA27A904205D0BE
:100CB0002046FFF773FFE168A07A8887E068FFF7B6
:100CC000FBFEE0682030807F08F0C5FC10BD30B529
:100CD000028B4D49521E40310A60428B521E4A60BF
:100CE000026A521E8A60036AC269D21A521ECA6020
:100CF000C2894549521E80314A614269521E8A6149
:100D000043690269D21A521ECA61828C521E0A625B
:100D1000C28C521E4A62C26A521E8A62C36A826AC8
:100D2000D21A521ECA620388394A5B1E1363438873
:100D30005B1E536383685B1E9363846843681B1B5D
:100D40005B1ED363038E5B1E0B63438E5B1E4B6384
:100D5000836B5B1E8B63846B436B1B1B5B1ECB63C4
:100D6000838F2B495B1E40390B60C38F5B1E4B602A
:100D7000436C5B1E8B60446C036C1B1B5B1ECB6067
:100D8000034640331C89641E0C615C89641E4C61FF
:100D9000046D641E8C61056DC46C641B641ECC61A3
:100DA0009C8A641E0C62DB8A5B1E4B62C36D5B1EF9
:100DB0008B62C46D836D1B1B5B1ECB62034660336D
:100DC0001C88641E0C635C88641E4C63846E641E05
:100DD0008C63856E446E641B641ECC639989491EC6
:100DE0001160D989491E5160416F491E916019E017
:100DF00000020000001000005555000000004053A4
:100E0000D0AC001040000052C00000554003005517
:100E1000C001005540420F00409C0000400D0300FF
:100E2000005A6202016F406F081A401ED060012014
:100E300030BDF0B5054687B008460A4624303C323E
:100E40006B4607C3243003900C3004900C3005909F
:100E50000E460C460F460C300690303618340C37D0
:100E600068887A31FFF773FE60604008A0602878D8
:100E70002979401860808020208061688A08019963
:100E8000163A8A6061884A0001994A8061684A0876
:100E900001994A6001998B220A806168029A890847
:100EA0009160029A61885180029A61685160029A49
:100EB0001080606881080398816003986188418090
:100EC000039861684160606841080398803101803F
:100ED0006068810804981439816060884100049832
:100EE0004180606841080498416060688108049806
:100EF0008A310180606841080598816061880598A1
:100F000041800598616841606068810805986C318E
:100F10000180606841080698816006986188418078
:100F20000698616841606068800841004118069831
:100F30006C310180012030800F207080A068801EFD
:100F400000097060697909F0F1FA70604008B060DA
:100F50006979A06809F0EAFA01462A786068504386
:100F6000803009180122AA5670685043401C091AA3
:100F70000098491E01806979A06809F0D7FA0146F6
:100F800000984160B1680098491C816028796979AE
:100F900048434100009841806068B860606862889A
:100FA0000146521C42434008803110180818A030F6
:100FB000786065684019401E294609F0B7FA684311
:100FC000786061688908401878600120788007B0EF
:100FD000F0BD10B5C94A0446116B8079002800D0D5
:100FE0008020C74B19400143C64801431163E168A3
:100FF0007820425EA07A824206D02046FFF719FF91
:10100000E068A17A60300183E068FFF760FEE06885
:101010006030807E08F01FFB10BDBB4902680A618A
:1010200042680A6280684862704730B54179FF22A1
:1010300049041202891A8279B04B11435963B349AA
:1010400000240C6102792146002A02D0012A1DD118
:1010500009E000200122451E9A639D63801C80B236
:10106000FF28F9D912E0002107E002684D00525B29
:101070009A6352429A63491C89B242798A42F4D8EF
:101080001006FF21C00D0131081A81B2002002E0D4
:101090009C63401C80B28842FAD330BD7CB50646C2
:1010A0006946FFF73AFC994D0024E0B26A463146A2
:1010B000FFF779FB2860E0B26A463146FFF7ADFBE7
:1010C0006860E0B26A463146FFF7E7FBA860641C3F
:1010D000802CEAD37CBD894A7F21C0321161DDE7D3
:1010E000864B10B50022803394000C591C61521CB1
:1010F000142AF9D3814A002140328B00C35813636C
:10110000491C0C29F9D310BD01684068E8E770B5A7
:101110007D4C0021403C8B001A181B19156D1D6079
:10112000D26D1A61491CC9B20329F4D35523734CFB
:1011300000211B0640348A008558D61835631518DF
:10114000AD6A12191560491CC9B20A29F3D370BDE2
:1011500070B50446C0686E4DC068002811D0682183
:101160000222095CAA56914201D1090609D5002143
:10117000FFF7CDFFE068C0686030007A4006400E9F
:10118000A870E068806800280ED00122017AAA5673
:10119000914201D1090607D5FFF7B6FFE0688068E4
:1011A000007A4006400E6870E068806900280ED022
:1011B0000522817AAA56914201D1090607D5FFF787
:1011C0008AFFE0688069807A4006400E6871E068B6
:1011D000C06900280ED00622C179AA56914201D1D9
:1011E000090607D5FFF721FFE068C069C07940060E
:1011F000400EA871E068006A00280ED00722017B2B
:10120000AA56914201D1090607D5FFF706FFE0680B
:10121000006A007B4006400EE871207C0228E068EE
:101220005BD0006800280ED00022817AAA56914235
:1012300001D1090607D5FFF726FDE0680068807A2E
:101240004006400E2870E0680069002811D028216F
:101250000322095CAA56914201D1090609D5002151
:10126000FFF71EFCE06800692030007A4006400E5F
:10127000E870E0684069002810D030210422095C41
:10128000AA56914201D1090608D5FFF700FCE06893
:1012900040692030007C4006400E2871E068406ABA
:1012A00000280ED00822C178AA56914201D1090621
:1012B00007D5FFF7ABFBE068406AC0784006400EF8
:1012C0002872204607F005FE207C022814D0032057
:1012D00008F0E6F807F045FE70BD40680028B2D07F
:1012E0000022817AAA56914201D10906ABD5FFF7B7
:1012F00070FEE0684068A2E70420E9E7400000557E
:101300000FE00FE0F11F00008003005500020055C0
:101310000010000010B5012007498007FFF784F98D
:10132000064900200870064A01211170054908800D
:101330000549088010BD0000FC1F00000A020000E3
:10134000200200000C1000003C02000010B5002834
:1013500001D001F0A5F8B34900200A4608702032F8
:1013600050700873086148618877C87710700877F3
:10137000487710BD10B5AC4C0021607805F0D2FD67
:10138000607805F01DFE10BD014610390F2905D902
:10139000992805D1A4480079002801D00120704780
:1013A00000207047F8B59F4CA049608840182BD1A9
:1013B0009F4800270078102822D108F0F0F9A08873
:1013C000012804D0042805D0072816D018E006F01C
:1013D00083FB15E0974D0097974E2B7832780421C8
:1013E0008B2008F0E0F92A7831780020514301E0A1
:1013F00000BF401C8142FBDC02E0002006F01DFE25
:101400008B486780012101730120F8BD10B50446A7
:10141000112802D0122C03D006E08249042001E0FA
:101420008049082007F00CFE7F490878844204D0E8
:10143000992C0DD1002008710AE0992C08D1087967
:10144000401CC0B20871032802D3794A10201070E2
:101450000C7010BDFFF7D2FA774802787548017812
:10146000764801F01EF901F0D3FA05F095FA08F07C
:1014700021FE0120FFF76AFF06F000FA06F082F86D
:101480000021084605F0DCFC674C0021607001205B
:1014900005F0D6FCA0700121084605F0D1FCE070F3
:1014A0000121084605F0CCFC654908700121084679
:1014B00005F0C6FC634908700021042007F0C0FD58
:1014C000584D5B4E2C4620342878030009F0D9FA99
:1014D0000504276066919800012007F0E1FFC8220B
:1014E0005949742008F0DAFE02231A460621DC204E
:1014F00008F08AFE0746287F08F0E9FD287739467C
:1015000006F09DF908F0DDFD012767700220A0704C
:101510000A20E070707808F0BDF82F70D4E73078BA
:10152000FFF774FFFFF73EFF3078FFF72DFF00282D
:1015300010D1707800280DD06078002808D030785D
:10154000992805D0A178E07800F072FA0020607048
:1015500000F068F9287B02280AD001280CD0A87F67
:1015600001280FD02869401C2861FFF703FFABE773
:1015700008F084F8022035E008F080F80020A86127
:1015800003202FE008F096FD01202877042029E0B1
:10159000012008F033F80020287323E000F021FA3E
:1015A00000F0F9FAA8690027002805D000F06AFBCE
:1015B000070001D100F0BEFA287B002806D0012FD9
:1015C00004D07D21A869C90088420DD1002007F010
:1015D00067FF012007F064FF707808F05BF808F0FF
:1015E00069FD012028706FE7401CA861FEF76EFFBF
:1015F0006AE70820307007F03CFE00203070F0E70A
:101600001421002003F04CF85EE710B505F0A4FBB0
:101610000548407805F003FD07F00AFF05F0A1FB3F
:1016200010BD0000B41700003E020000E9F7FFFF04
:1016300010360000FFB00010FEB00010D01E0040B9
:101640000802000009020000B80B0000F8B500F025
:1016500025FF03460021801C10250A46264C122631
:101660000AE0028042808280827141720572C779ED
:101670003743C7710A30491CA7788F42F1D81F70D1
:101680005A700021022007F0DBFCF8BD0024FFF7B0
:10169000DDFF04F096F803F03FFA06F030FC02F0AC
:1016A000FFF9164F164D00261649387805F03AFC1A
:1016B000002803D01321002002F0F2FF1248007826
:1016C000002802D100F022F804460B4800780028D8
:1016D000EAD1287B002807D0002CE5D00021022089
:1016E00007F0AEFC2E73DFE7002CDDD000210220D6
:1016F00007F0A6FC6E61D7E710360000400200003C
:10170000B41700008096980043020000F8B5364AEE
:101710000023507F0125354C3549012802D002288D
:1017200006D007E0FF202D3008602570537704E0D5
:10173000237053770868002802D0401E086001D14A
:1017400004F0BBF803F0B8F908F085FA06F0AEFB38
:10175000294900950B782949264F0A7838780421C1
:1017600008F021F8264803F077FA264E2E23307031
:101770002548264AC35E22482549006803F076FEC4
:10178000244A31781E4803F0AFFC30701A490095A6
:101790000B781A4938780A78082108F004F81848B4
:1017A0003022825E21781C4805F045F81A4805F081
:1017B0006CF8002802D008F0D2F901E008F0D3F963
:1017C00005F0E7F802F0DDFC0446012006F035FCE8
:1017D000124913480A6B521C0A630122114608F091
:1017E00083FB2046F8BD0000B41700000A02000089
:1017F0004402000010360000FFB00010FEB00010E0
:10180000B819000034020000843600000C100000FB
:10181000A010000038020000EC1B0000F4370000AC
:10182000F07F0040F0B585B0022007F039FEFD4E94
:10183000FD4DB07900280FD1287805F0C1FB0220BA
:1018400005F06AFF6421287805F06CFB002803D0BE
:101850000721002002F024FFF4487D21C900007810
:1018600005F060FB002803D00821002002F018FFDB
:10187000287805F0A5FB05F006FFEA4880790028E6
:1018800008D10221EA4808F080FCEA48007F08F00D
:101890001EFCC4B26421287805F044FB002803D064
:1018A0000921002002F0FCFEE3486421007805F0E5
:1018B00039FB002803D00A21002002F0F1FE06F0D7
:1018C000F2F8287805F07CFB05F00CFF06F0A4FB8D
:1018D0006421287805F026FB002803D00B21002086
:1018E00002F0DEFE022007F089FE0126D3480096B2
:1018F0000178007831400818C3B2D249D0480A783C
:101900000078002107F04FFFCD480096CE4D0078BB
:101910002B780122052107F046FFCC48CC49CD4A5F
:1019200000780978127803270192049702910390B6
:1019300028780090C84AC948C74B803AC7498038C0
:1019400007F0E3FF2878C44942008039C44808F012
:1019500083FDC1482A78C249803805F093F9B84818
:10196000009600782B780122062107F01CFFBD4865
:1019700003F04EFFBC48007800280ED129780420DF
:1019800000910190B94802970396B34AB24903788F
:1019900080328039B14803F0EDFF0121B44801F0F5
:1019A00002F8A048007800280AD1A24D287FA04262
:1019B00006D0022C06D0012C02D1022068772C77A9
:1019C00005B0F0BDAB48022382784178DC2008F0F6
:1019D0001BFC81B2204605F032FF08F072FB6E77E7
:1019E000EDE738B5052007F05BFD8F4C207805F05A
:1019F000E7FA05F0F1FE6421207805F093FA00285B
:101A000003D00F21002002F04BFE052007F0F6FD69
:101A1000012000908C48082201780078C907C90F7E
:101A20000818C3B286480021007807F0BCFE38BD14
:101A3000F0B5064680480F4685B06421007805F071
:101A400071FA002803D01021002002F029FE8248FC
:101A50003C218038FEF7E8FD73200221800100F070
:101A600098FF022007F01CFD002437E06E4D287817
:101A700005F0A6FA05F007FE6421287805F052FA71
:101A8000002803D01121002002F00AFE287805F07A
:101A900097FA05F027FE6421287805F043FA00281C
:101AA00003D01221002002F0FBFD05F0FCFFBC4238
:101AB00012D36448644D7321027889012B78481051
:101AC00000F097FD00200090634964482B780122C4
:101AD0008039803803F005FF641CE4B2B442C5D3FA
:101AE000594DF41B287800905648A2B20378732011
:101AF0006149800100F0A1FD297800230322012023
:101B00006D460FC5A2B2544C0423803C5349204675
:101B100003F0FDFE3C212046FEF786FD01215748DB
:101B200000F037FF022007F069FD4348007805F018
:101B30004FFA45E7F8B500275049384600F02EFF28
:101B400006464D49384600F029FF0546002418E0B6
:101B500000243C4905E060002A5A335AD2182A5220
:101B6000641C08788442F6DB00F0DDFD4000451976
:101B700043482040012803D100F0D5FD40008619DC
:101B8000641C384600F0D2FDA042E1DC7F1CFFB2AD
:101B9000042FD1D3F8BDFEB500200090374900F0E6
:101BA000FDFE01900021009800F0F8FE0546002798
:101BB00000F0B9FD009948434100382078430918E6
:101BC0000120800708180024029011E002986600A6
:101BD000805F0521C9014843422108F0B1FCA95F9B
:101BE00000B2091ACA100199641C8A53A853E4B2BE
:101BF000009800F09BFDA042E8D800F094FD410061
:101C000001980818019000F08EFD40007F1C4519D6
:101C1000FFB2082FCCD30098401CC0B2009004281B
:101C2000BCD3FEBDD43600001A0300004102000000
:101C300060120040B41700000902000001B100105A
:101C400010360000FEB00010FFB0001009B1001007
:101C500008B1001007B10010903600402035004058
:101C600020160000F4190000340200000AB1001030
:101C70002F7C0010BC36000090150000F0230000FF
:101C800001000080F8B5002738460097124900F09F
:101C900085FE05460026002403E06000285EC71983
:101CA000641C009800F042FDA042F6DC00F03BFD11
:101CB00040004519761C082EEDDB0098401CC0B290
:101CC00000900428E2D3AF208000874201DD01208C
:101CD000F8BD0020F8BD0000F023000070B5FF4CF7
:101CE00000232268DB43D568AB875C25022817D028
:101CF00007DC002812D0012802D1FF207330508069
:101D000070BD0026F649032814D0FF28F8D10E63D1
:101D1000002007F091FB606A067070BD558070BDB1
:101D2000002905D0022007F087FB2068458070BDA0
:101D30000120F8E7102008635580616A03200870CD
:101D4000E848066070BD70B505460E4601240220C5
:101D500007F0A6FB31462846FFF7C0FFE24D287882
:101D600005F02EF905F015FD6421287805F0DAF864
:101D7000002803D00221002002F092FC0021FF2065
:101D8000FFF7ACFF022007F039FC204670BD30B5EC
:101D9000D74AD849D54B097812781C0200204A430B
:101DA00003E041005D5A6552801C8242F9DC30BD7F
:101DB00038B5CF4C002807D0012808D002280BD016
:101DC00003282AD1002104E00021084601E0002177
:101DD0000120FFF7B8FF17E000210220FFF7B3FF53
:101DE000C44801780078C907C90F0818217848430A
:101DF000420001218907BD48FEF72AFC012102208B
:101E0000FFF7A1FFFFF7C3FF01200090BA48227837
:101E100003780921802007F0C6FC38BDB7490120AE
:101E2000C877B749002008707047F3B581B0002526
:101E30002AE0002422E000F076FC0146204608F06B
:101E400075FB029900F0AAFD064600F06CFC6843A1
:101E5000400036183878FE21401C08406843410095
:101E600001980F1800F05FFC0146204608F05EFB69
:101E700048006100305A641C7852E4B29E4F3878B2
:101E80008442D8D36D1CEDB2994800788542D0D3F6
:101E9000FEBD70B5049C5A43002C0BD0002306E015
:101EA0005C00065F0D5FAE4200DD05535B1C934294
:101EB000F6DB70BD002306E05C00065F0D5FAE42FE
:101EC00000DA05535B1C9342F6DB70BDF0B50646A5
:101ED00000205A4303460BE05D00745F4F5FE41B34
:101EE00000D5644224B2844200DD204674535B1C5A
:101EF0009342F1DBF0BDFFB58E469C46002411E015
:101F000060466043410000980D180020A70006E0DD
:101F10000B994600AB5BC9595B1AAB53401C90420E
:101F2000F6DB641C7445EBDBFFBDFFB594469E46B3
:101F300000200C9E0B9D1CE000214700E95331540A
:101F4000714641434A000099531800210EE04A00AF
:101F50009C5E099A944208DC0A9A944205DBEA5B8B
:101F60001419EC53345C641C3454491C6145EEDB99
:101F7000401C01998842DFDBFFBDF7B50446D0B0B5
:101F8000732040010C905F48BB2673271190B60167
:101F9000BF01594810960F9701780078C907C90FFB
:101FA00008180121400089074018149057480790ED
:101FB00056482421603005905448534DC0300A9053
:101FC00053480890534841800021416047210170E7
:101FD000082141704F48083004905298002802D1DF
:101FE000032102F05DFB4C486421007804F09AFF65
:101FF000002803D00421002002F052FBE00703D0A8
:102000003046022100F0C5FCA00703D53846012167
:1020100000F0BFFC4148610700788000099000296A
:1020200003DA0146079808F07FFA200703D50999DB
:10203000089808F077FA00200690384800784000A9
:102040000B90069860E1022007F02AFA264E3078BD
:1020500004F0B6FF05F017FB6421307804F062FF4E
:10206000022007F0CBFA05F01EFD2007800F25D0D7
:1020700000261FE01F49002209781046CB07DB0F1E
:1020800059188C46770008E0614641434B0014998B
:102090005918C95F8A18401CC0B21549097888428E
:1020A000F2D313480178104608F04AFA0599761CD5
:1020B000C853F6B2194800788642DBD35299069885
:1020C000884270D3E0072DD010980B4A81B2137864
:1020D0000C98074A80B2127822E0000068200000C5
:1020E000C0030055480200001A0300000000405ED3
:1020F000FEB0001001B10010FFB00010B4170000D6
:102100001036000090150000F0230000301400404D
:1021100050150040503700400902000000B1001087
:1021200000F067FAA0077DD50026D14F00F0FBFA3A
:1021300001900C9881B2304600F030FC0090A9B2BA
:10214000304600F02BFC3A78019B0099FFF7BEFE69
:10215000761CF6B2042EE9D30026C649304600F0BC
:102160001DFCC4490D906031304600F017FC0E9004
:1021700000F0D9FA1390304600F0D8FA1290A9B2C4
:10218000304600F00BFC0E9F0D9B0E220397D243AE
:102190001E216F460EC7B64F139B3978129AFFF770
:1021A000C4FE002119E088E0002E05D100208B003C
:1021B00015AAD05043AA5054880015AA13580D9A56
:1021C0004F00D25F9A1815AB1A500E9A43A8435C81
:1021D000525C9A184254491CC9B2A5480078814201
:1021E000E2D3761CF6B2042EB7D300260DE043A846
:1021F000815DB70015A8C059CA22504308F0A0F964
:10220000011215A8761CC151F6B2994801788E4288
:10221000EDD30026074600F086FA0D90304600F018
:1022200085FA00E02DE00390A9B2304600F0B6FB3D
:102230000E2215ABD2431E210293019200913978F0
:102240000D9B039AFFF757FE761CF6B2042EE2D3DD
:10225000002600F068FA0290A9B2304600F09EFB1A
:1022600001900F9881B2304600F098FB0021009158
:102270003A78029B0199FFF70CFE761CF6B2042E09
:10228000E7D3600708D5002000907B48012203783F
:102290000799059803F025FB20070ED5764E0122FD
:1022A000337805990A98FFF711FE002000903378E3
:1022B00001220A990898FFF7ECFDA00718D500261F
:1022C00000F031FA6A490978484347000C9881B216
:1022D000304600F063FB0090A9B2304600F05EFB90
:1022E0003A46009908F0B8F8761CF6B2042EE7D307
:1022F000200704D50B9A05990A9808F0ADF8FFF766
:1023000039F80698401C06905199884200D29AE606
:10231000529A5198E107851A584802785448007833
:1023200050434600002914D05448514B0078009087
:10233000E804020C11981B7881B2109880B200F06A
:102340007CF9119881B20498FFF76FFD049830185A
:1023500004904948494A007812786107101A4700EA
:10236000002920DA444900200978012202900092D5
:1023700001910390AAB202230499079803F0C7FAC7
:1023800004990B9845183D4801783B4800788142F4
:1023900003D20521002002F083F93946284608F0CF
:1023A000C1F878190490A00707D50F9881B2049856
:1023B000FFF73BFD049830180490200715D52E4CEC
:1023C000099A0899049808F047F804990B98451859
:1023D0002A4908782178884203D20621002002F099
:1023E0005FF93946284608F09DF82548007804F042
:1023F000EFFD53B0F0BDF0B522A30FCB85B06C4616
:102400000FC4012005F003FA05220F210420FFF775
:10241000B4FD00206D461F4E1F4F174C09E0295C8C
:10242000002904D041008A19128BC9190A80401C66
:10243000C0B221788842F2D3022005F0E8F90522E3
:102440000F210420FFF799FD002009E0295C0029F5
:1024500004D04100CA19128889190A83401CC0B2ED
:1024600021788842F2D3002005F0D1F905B0F0BD03
:10247000FEB00010F03D000000B10010FFB00010F1
:10248000090200000100010001000100010000013B
:102490000100000040370040A03400401D48704754
:1024A00030B51D491B4A0978743211701B4901234C
:1024B000097851709382D382022111838421518340
:1024C000114620318B70CB70002000231449938477
:1024D0000C1820341518A47C401C2C770628F7D340
:1024E000002004E0410089180B714B71401C917869
:1024F0008142F7D80C490B481363086030BD0020B7
:10250000094A0146121D1318401CC0B219730C2849
:10251000F9D3704780370000FEB00010FFB0001004
:10252000C002001080FF00100C3600000A04120EDA
:10253000554B1204090618401043090D0843704713
:10254000F8B59C4693046446DB0CA4052343069C23
:102550004E4DE405A40A2343840088002E59FF3021
:1025600081303350082901D2002000E004200126E8
:10257000130CB603B34201D1002300E0022352043E
:10258000D60F1E434200891AB64689000F228A40A0
:102590002E59034658330096F758764697438E4097
:1025A0003743009EF75006462B596036B6469E5973
:1025B0001F46069B9643DB041B0F8B401E433B4686
:1025C0007746DE512B5968301C589443624692047A
:1025D000120F8A4014431C50F8BD002100022B4A00
:1025E000401C8B00D3581860491CC9B20429F8D389
:1025F0007047FFB581B00024049800F049F8C6B2D6
:10260000039802994643204600F0C8F90546204643
:10261000019900F0C3F90246002106E088004F004E
:102620002B58D75FDB192B50491CB142F6D3641CE1
:10263000E4B2042CE0D305B0F0BDFFB581B00025B5
:102640000A9800F025F8049EC0B246432846019936
:1026500000F0A4F900902846029900F09FF907467F
:10266000002409E00098A10040580399C00007F039
:1026700067FF61007852641CB442F3DB6D1CEDB25D
:10268000042DDDD3D7E700000FF000FF00AD0010F0
:10269000401EC117090F081800118000001DC0B2AC
:1026A0007047F7B50C460321890701224118D20370
:1026B000914200D3FEE70025D04ED14B35707570A6
:1026C000B570F560B0602846012182009A5811610A
:1026D000401CC0B20428F8D30021012004F0B0FB54
:1026E000F0700121084604F0ABFB30712046FFF783
:1026F000CFFFB07107460298F071C04E002020361F
:102700003554401CC0B20428FAD3002508E03946ED
:10271000284607F00BFF315C491C6D1C3154EDB2AB
:10272000A542F4D3FEBDB54880797047B349203146
:10273000085C704770B5B14800211C30AF4C016097
:1027400060791821AF4D484340198268002A03D0B0
:10275000A1696069904700E00120A178002918D0A4
:1027600000281FD06079182148434019C268002A08
:1027700002D0A16960699047A078012812D121692F
:1027800000208847A07000280CD104F0E5FA2079D9
:1027900004E0002806D004F0DFFAE07804F03FFC03
:1027A00004F0DFFA70BD964801684969C9070AD08C
:1027B00000680121816191481C30017000689249D4
:1027C000884200D1B6E770478D4841684969C9071A
:1027D0000AD040680121816188481C30417000683E
:1027E0008949884200D1A5E77047854881684969D1
:1027F000C9070AD080680121816180481C3081703E
:1028000000688149884200D194E770477C48C168DC
:102810004969C9070AD0C0680121816177481C3025
:10282000C17000687849884200D183E7704770B56D
:10283000724C05462178142900D3FEE76869C20767
:1028400000D0FEE7E268801801229202904200D98F
:10285000FEE718206B4E4143881918222946FDF7E0
:10286000F7FEE168A06818224018217851438919C1
:1028700008616A69296907F0EFFD2078401CC0B241
:1028800020706969E2688918401EE16070BD30B44B
:102890000C465A490978814200DCFEE7182148437A
:1028A00058490B58002B03D0204630BC114618471E
:1028B00030BC01207047F8B5504C054620780E46D4
:1028C0001746A84200DCFEE76078002800D0FEE74B
:1028D0006571A7616661E07804F072FB18204543DA
:1028E000484839462D186A6830469047A078012834
:1028F00010D06421E07804F015FB002800D0FEE73A
:102900003E4900201C310860EA68002A02D039469E
:10291000304690470020F8BD384818214079484398
:1029200038494018006970473448182140794843B5
:102930003449401840697047F8B5344E054617468B
:1029400000290DD0012917D00024A00030583946A5
:102950004019FDF769FE641CE4B2042CF5D3F8BD00
:102960000024A00030583946401907F0DBFD641CF4
:10297000E4B2042CF5D3F8BD00245700A000305871
:102980003946401907F0CEFD641CE4B2042CF5D39F
:10299000F8BD1A4B9A79DB795A43CDE71B4A800080
:1029A00010584018704770B5144C0125A27806469F
:1029B000012904D002290ED0032919D01CE0002AD5
:1029C00001D0022A18D1207904F0FAFA2661A57004
:1029D0000120B04705E0022A0ED1A570216902202E
:1029E0008847A070002807D1207904F0F1FA03E0AD
:1029F000012A01D10220A070A07870BD4C02000015
:102A000000AD0010D81700000101010110AD001049
:102A100010B5FE48FFF70BFFFD4CE060FB48603847
:102A2000FFF705FF2060F9484838FFF700FF6060B6
:102A3000F6483038FFF7FBFEA060F4481830FFF787
:102A4000F6FE2061F1481838FFF7F1FE6061EF48AB
:102A50003030FFF7ECFEA061EC484830FFF7E7FEAE
:102A6000E061EA486030FFF7E2FE2062E748783034
:102A7000FFF7DDFE6062E5489030FFF7D8FEA06208
:102A800010BDF0B585B00546FFF746FF012180B2C5
:102A90000026C9070390DF4F40180290E87AFFF73D
:102AA000F7FD0190A87AB4004006410C019801435B
:102AB00038590164FFF738FF0399401839594860C5
:102AC00039590298886039590020486439590F20D3
:102AD0004865012000902A8800213046019BFFF7BD
:102AE0002FFD0120009001466A883046019BFFF7C8
:102AF00027FD08203959285680310860697A01205D
:102B00008004081839598864761CF6B2042EC5D39F
:102B10000120FFF762FD012005B0F0BDF0B585B0E2
:102B20000446FFF7F9FE0290012180B20025C90793
:102B30000490B84F40180390607AFFF7A9FD019008
:102B4000207AAE004006410C01980143B859016457
:102B5000FFF7EAFE04994018B9594860B95903983B
:102B60008860B959002048640126009601462288F1
:102B70002846019BFFF7E4FC0096E28801212846E5
:102B8000019BFFF7DDFC0096628802212846019B2D
:102B9000FFF7D6FC0096A28803212846019BFFF789
:102BA000CFFC6D1CEDB2042DC6D3A17A0298491E4C
:102BB0004068FFF7BBFC029948600120FFF70DFD5C
:102BC0000120A9E7F0B585B00446FFF7A5FE019006
:102BD000012180B20025C90704908E4F4018039050
:102BE000E079FFF755FD0290A079AE004006410C58
:102BF00002980143B8590164FFF796FE0499401802
:102C0000B9594860B95903988860B9590020486497
:102C1000012600960146A2882846029BFFF790FCF9
:102C20000096628801212846029BFFF789FC0096E6
:102C3000228802212846029BFFF782FC6D1CEDB220
:102C4000042DCDD3207A01040001014372480143D1
:102C5000019841600198617A4069FFF767FC01992A
:102C600048610120FFF7B9FC012055E7FEB5044695
:102C7000FFF752FE012180B20025C90702904018DB
:102C80000190E079FFF704FD4708A079614940060B
:102C9000AE00400C895938430864FFF745FE02999D
:102CA00041185C48805941605A49019889598860A7
:102CB0005849002089594864012600960146A28897
:102CC0003B462846FFF73CFC009662883B460121C4
:102CD0002846FFF735FC02267F00009622883B46F7
:102CE00031462846FFF72CFC009622883B46921C72
:102CF00003212846FFF724FC6D1CEDB2042DC0D340
:102D00000120FFF76AFC0120FEBDFEB50446FFF777
:102D100003FE012180B20025C907029040180190EE
:102D2000E079FFF7B5FC4708A0793A494006AE00C4
:102D3000400C895938430864FFF7F6FD02994118A1
:102D40003448805941603349019889598860314934
:102D500000208959486401260096014622883B4696
:102D60002846FFF7EDFB009662883B460121284686
:102D7000FFF7E6FB02267F000096A2883B4631461D
:102D80002846FFF7DDFB0096A2883B46921C0321F4
:102D90002846FFF7D5FB6D1CEDB2042DC0D30120F2
:102DA000FFF71BFC0120FEBDF0B587B00446FFF71E
:102DB000B3FD0190E079FFF76BFC07460198012114
:102DC00080B2C90706904018029078000390B800BE
:102DD000049000253846062148430590A0790D4906
:102DE0004006AE00400C895938430864FFF79CFD4B
:102DF0000699411807488059416006490298895947
:102E00008860044900208959486407E030AE00100A
:102E10007002000000AD00100010000E01260096A8
:102E2000014622883B462846FFF78AFB00966288C7
:102E30003B4601212846FFF783FB0096A28800232A
:102E400002212846FFF77CFB0096A1880398002307
:102E50000A1803212846FFF773FB0096A1880498FF
:102E600000230A1804212846FFF76AFB0096A18870
:102E7000059800230A1805212846FFF761FB0096F4
:102E8000A2883B4606212846FFF75AFB6D1CEDB28F
:102E9000042DA3D32089401E01B201984068FFF79A
:102EA00045FB019948600A20205EC1430198C06932
:102EB000FFF73CFB0199C8610120FFF78EFB012061
:102EC00007B0F0BDFEB50446C06900210180206A4C
:102ED0000D460180A06901606069016000200190D9
:102EE0000090FFF723FC0646FFF71DFC0746732101
:102EF00009010098FFF752FD6F4379004118002D3A
:102F000006D0022D18D0012D2AD0226A002030E0F0
:102F1000019A0020920094460BE042008700E3688B
:102F20008A5E6744DA5167693B689A18401CC0B2F0
:102F30003A60B042F1D31EE0019A0020920094461C
:102F40000BE04200870023698A5E6744DA51A76973
:102F50003B689A18401CC0B23A60B042F1D30AE014
:102F6000E269D3E747001388CF5BDB19401C13806D
:102F7000C0B2B042F6D30198801900B20190009817
:102F8000401CC0B200900428ABD36D1CEDB2042DE0
:102F9000A4D30120FEBDF0B585B00446FFF7BCFC0C
:102FA0000546012180B20026C9070390401802900F
:102FB000207DFFF76DFB0190E07CB7004006410CDF
:102FC00001980143FE48C0590164FFF7ADFC039925
:102FD0004118FB48C0594160F9490298C9598860B5
:102FE000F7490020C9594864012700970146228803
:102FF0003046019BFFF7A4FA009762880121304612
:10300000019BFFF79DFA0097A28802213046019BA1
:10301000FFF796FA0097E28803213046019BFFF7FD
:103020008FFA0097228904213046019BFFF788FA26
:103030000097628905213046019BFFF781FA0097CE
:10304000A28906213046019BFFF77AFA761CF6B278
:10305000042EADD30F2161566868FFF767FA6860E8
:103060000E2020564142E868FFF760FAE86011211F
:1030700061562869FFF75AFA286110216156A8693C
:10308000FFF754FAA861122020564142286AFFF740
:103090004DFA28620120FFF7A0FA01203CE5F0B5C7
:1030A000054685B000200190FFF736FC0146687D9B
:1030B0000022002808D0E868242343804723426088
:1030C0000370082343700193BE4808608F20800579
:1030D000002427468EB2086128190290017A00293F
:1030E00039D0287DB64A4006400C0143A000135851
:1030F00019641358311D59600121C90710587118FE
:1031000081600021A000AE4A039010584164012064
:10311000009060002B5A2A8A2046FFF711FA0120FE
:1031200000900198E96838180A186B8A0121204636
:10313000FFF706FA0298A24A007AFF214000C01960
:1031400087B20398023110580160641CE4B2042C69
:10315000C2D30120E0E4FF2202329949A0000B58BB
:103160001A6432460B5808325A60974A0858B21807
:103170008260C6E7FEB504460E46FFF7CDFB216927
:10318000B160E16871609149016091494160257ABF
:103190000821904A904B022D04D08260227A0C21A3
:1031A000012A01D04350091D41180122002580B297
:1031B000D2078018019088B20290E079FFF768FA90
:1031C00070550346A0797E4A4006410C1943A80079
:1031D0001758396417580021796417580199B96054
:1031E0001058029941600127009722880021284643
:1031F000FFF7A6F900976288002301212846FFF710
:103200009FF90097A288002302212846FFF798F92A
:103210006D1CEDB2042DD0D30120FFF7DEF90120A3
:10322000FEBDF8B50646007A0F4602281BD06B4D4E
:10323000002471882046FFF7B1FB024600203B5D69
:1032400006E04100515EA94200DA0D46401CC0B2C2
:103250008342F6D8641CE4B2042CEAD37868058073
:10326000307A012819D05D4D6D420024B188204686
:10327000FFF794FB024600203B5D06E04100515EF3
:10328000A94200DD0D46401CC0B28342F6D8641C42
:10329000E4B2042CEAD3B86805800120F8BDF0B58B
:1032A0000025817B2B462F468E4626E00024067B98
:1032B00021462246B44612E0066976578E40083110
:1032C0003243C9B2202907D341699E0089599142EE
:1032D0000ED15B1C00210A466D1C641CE4B2A4459F
:1032E000EAD8002907D041699C000959914201D0D0
:1032F0000020F0BD5B1C7F1CFFB2BE45D6D801206C
:10330000F0BD00B5FFF7CBFF002800D0012000BDC5
:10331000F0B587B004460D46FFF7FEFA0290012093
:10332000687200272F73207BC01C8008E872A17B85
:10333000607B07F0FBF8A872A17B4843617B884261
:1033400005D0081A2872A87A401CA87200E02F72D3
:103350000298002680B2011D03910121C90740187F
:1033600001960490E07BFFF793F9A9190591087184
:10337000A85500201249B700C9594864E088009058
:1033800021680198A3880A1800213046FFF7D8F871
:10339000207B01283BD0A97A228941434806A95DB8
:1033A000400C08430649C9590864012000900146B1
:1033B000AB5D3046FFF7C4F801480399C2590FE0EE
:1033C00000AD00100010C023040000800010000CAD
:1033D0000020000C1010002120204021FF7F000061
:1033E0005160C059049981600598761C0079F6B245
:1033F00041000198081880B20190042EB2D30298BF
:10340000F74901600120FFF7E8F8012058E5617BEA
:1034100062894906A85D490CC3E7F8B506460C4623
:103420001746002501200090607BA17B7B5D401A40
:1034300080195843618940004218E8B20121FFF722
:103440007FF86D1C042DEDD3FA7AE64B10467243DB
:1034500080188646002110E0950000208F00AC46C1
:10346000803765696646AD5986009E59F551401C06
:103470000428F6D3521C491CC9B27245ECD3F8BDDE
:10348000F8B506460C4617460025012000907B5DE6
:10349000A17B18464B436189704340000A18E8B28B
:1034A0000121FFF74DF86D1C042DEED3FA7ACD49BA
:1034B0001046724380188646002310E095000020D5
:1034C0009F00AC46803765696646AD5986008E59C7
:1034D000F551401C0428F6D3521C5B1CDBB272452C
:1034E000ECD3F8BDFEB506460C46FFF715FA0746C5
:1034F000307B032201287DD0607A0128207B1DD0FB
:10350000401CC0B22073B17B884273D22246314640
:10351000FFF783FFBCB201260020B24DF607FF275C
:103520000237C10061188A1981006B589A60695886
:103530000F60401CC0B20428F3D37FE0401CC0B22F
:103540002073B17B88423DD8012833D1207A0028EE
:10355000A07A01D0401EC0B200254006400C019068
:10356000B8B2029001200090635D307B3289434302
:1035700000212846FEF7E4FF615D0198994A014366
:10358000A80012581164974918220958B2564A6483
:10359000317B954B625D090419430A43E9007A5077
:1035A000029A51188F4A091D105841606D1CEDB2E6
:1035B000042DD7D3207B2246401EC0B23146FFF7F0
:1035C0005FFF28E0207A00283AD0081A20730220F2
:1035D00060720025605D8349FF300130AA00895880
:1035E0000864207B22463146FFF717FF0120009038
:1035F000635D00E024E0307BA17A5843491E4843D4
:1036000031894000421800212846FEF799FF6D1CC1
:10361000EDB2042DDED3BCB201260020714DF607B9
:10362000FF270237C10061188A1981006B589A6020
:1036300069580F60401CC0B20428F3D30020FEBDBF
:1036400062720120FEBDF0B587B005460C46FFF75B
:1036500063F902900120607200272773A87BC01CC9
:103660008008E072297CE87B06F060FFA072297C6C
:103670004843E97B884205D0081A2072A07A401C92
:10368000A07200E027720298002680B2011D03910B
:103690000121C907401801960490687CFEF7F8FFE5
:1036A000A11905910871A05500204E49B700C959CC
:1036B0004864E888009029680198AB880A180021BE
:1036C0003046FEF73DFFA87B2A89012829D0A17A40
:1036D00041434806A15D400C08434249C95908646A
:1036E000012000900146A35D3046FEF729FF3D48CA
:1036F0000399C2595160C059049981600598761C9C
:103700000079F6B241000198081880B20190042EA9
:10371000C3D30298324901600120FEF75EFF012009
:1037200074E6E97BA05D4906490CD5E7F7B50025AD
:1037300082B00C46164601270097735DA289E8B255
:103740000121FEF7FDFE6D1C042DF5D3F27A0299DE
:1037500010464A43801886460023224910E095000F
:1037600000209F00AC468037A5696646AD598600AB
:103770008E59F551401C0428F6D3521C5B1CDBB259
:103780007245ECD38AE4F8B50C4605460988FFF784
:1037900005F9009061882846FFF700F98646002366
:1037A00032E0A0885843410000980E18E088584342
:1037B000410070460A180A202056002802D084468C
:1037C00000211CE0002106E04D00575B705B3818BB
:1037D000491C5053C9B2607A8842F5D812E0000003
:1037E0000010C02300AD00100010402F4D00505FAE
:1037F000775FC01967463841491C5053C9B2607A97
:103800008842F3D85B1CDBB2207A9842C9D8F8BD55
:10381000F7B5002582B00C46164601270097735D68
:10382000A289E8B20121FEF78BFE6D1C042DF5D3B1
:10383000F27A029910464A43801886460023964938
:1038400010E0950000209F00AC468037A5696646D1
:10385000AD5986008E59F551401C0428F6D3521CF0
:103860005B1CDBB27245ECD318E4FEB505460C4692
:10387000FFF752F80746A87B012843D0607A012859
:103880005AD0012069460872687F88720026A8898C
:1038900069460880E87B297C401A217B4018A15D9D
:1038A0004843698940004018694648800020888064
:1038B000C880A019007948723046FFF764FF761C73
:1038C000F6B2042EE3D3207B401CC0B22073297CC7
:1038D000884230D222462946FFF728FFBCB2012693
:1038E00000206D4DF607FF270237C10061188A19C5
:1038F00081006B589A6069580F60401CC0B2042860
:10390000F3D3C2E028896946088068894880E87B4B
:103910000872687F88720025605D69468880605DF6
:10392000C8806019007948722846FFF72CFF6D1C8B
:10393000EDB2042DF0D3AAE0207A0028A07A01D0BD
:10394000401EC0B2217B491CC9B22173022920D379
:10395000A9896A4611801072687F90720026217BC7
:10396000A05D891E48436989400040186946488027
:10397000A05D8880A05D297C48436946C880A01965
:10398000007948723046FFF7FEFE761CF6B2042E30
:10399000E5D3207B297C88423DD8012833D1207A89
:1039A0000028A07A01D0401EC0B200264006400C7C
:1039B0000190B8B2029001200090A35DA87B2A89F3
:1039C000434300213046FEF7BBFDA15D0198324A1A
:1039D0000143B000125811642F491C220958AA56FD
:1039E0004A64A97B2D4BA25D090419430A43F100E7
:1039F0007A50029A5118284A091D10584160761CC5
:103A0000F6B2042ED7D3207B2246401EC0B22946F0
:103A1000FFF7FEFE26E0207A002838D0081A20732F
:103A2000022060720026A05D1B49FF300130B20009
:103A300089580864207B22462946FFF777FE01203B
:103A40000090A35DA87BA17A5843491E4843298969
:103A50004000421800213046FEF772FD761CF6B297
:103A6000042EE0D3BCB2012600200B4DF607FF2741
:103A70000237C10061188A1981006B589A60695831
:103A80000F60401CC0B20428F3D30020FEBD032009
:103A900060720120FEBD000000AD00100010402F3C
:103AA0007047FFB50446FF48FF49007885B04000E5
:103AB0000F5A401880881D4600900190E1B203AB78
:103AC00002AAFA4802F03DFFE1B2F84802F003FF13
:103AD000049007986A4608210068515E0C1A00D5C8
:103AE000441A6B460C269E5F2A68B31A00D5931BB6
:103AF000069AE41852070DD479436043081839191F
:103B000006F01EFD07997E43086028686043301860
:103B100039190FE0009A604351430818111906F053
:103B20000FFD079908600198019946432868091913
:103B30006043301806F004FD28600E980188049850
:103B400006F0F1F80E990880002009B0F0BDF3B539
:103B5000D74885B0C07F002802D0002007B0F0BD54
:103B6000D448D54CC27D0292007E0390A18DD348EB
:103B700000910178009806F0D9FC0746E08D01908D
:103B8000CF480178019806F0D1FC06460598C9494E
:103B90000068029A04B20698006805B21920085617
:103BA00000994908002A28DDBC4204DAE01B504392
:103BB0008011C01910E0009A121BBA4207DAD11B1B
:103BC000029A009851438911C919401A04E00A1B4E
:103BD000504306F0B5FC001904B2B6491A20085645
:103BE000B549039AC98D4908002A24DDB5420BDA8C
:103BF000A81B50438011801917E0BC42EDDB009AEE
:103C0000D21BA242E3DAE8E7019A521BB24207DA7A
:103C1000901B039A0199504380118019081A04E0FF
:103C20004A1B504306F08CFC401905B2059804600D
:103C30000698056091E7B542F8DB019A921BAA420B
:103C4000EEDAF3E7FFB587B00D4614461E46119F26
:103C5000079806F013FE0090284606F00FFE01902C
:103C6000204606F00BFE0290304606F007FE039059
:103C7000109806F003FE0490384606F0FFFD05900C
:103C8000BD4210DD1098001B06F0F8FD0546B81B7C
:103C900006F0F4FD294606F0F7FC0746009906F009
:103CA00043FF01990FE00798201A06F0E7FD074649
:103CB000701B06F0E3FD394606F0E6FC0746049962
:103CC00006F032FF059906F0E9FE064638460299ED
:103CD00006F02AFF039906F07FFF05467800000EE4
:103CE0000FD00121384606F0D5FD0446294630465E
:103CF00006F07EFF214606F0C7FC06F075FD0BB00E
:103D0000F0BD2046FBE7F0B505460E4685B01446EB
:103D1000981B06F0B3FD029001900A99284668436B
:103D200049430746C81B06F0A9FD00900B98801B6D
:103D300006F0A4FD039020466043381A06F09EFD6D
:103D40000146039806F0F0FE07460099019806F038
:103D5000EBFE394606F0A2FE00900B98301A06F0F2
:103D60008DFD0190601B06F089FD06460A98029FB2
:103D7000401B06F083FD0146384606F0D5FE054699
:103D80003146019806F0D0FE294606F087FE012153
:103D900006F080FD01464000000E06D0009806F0B7
:103DA00073FC06F021FD05B0F0BD2046FBE7F0B541
:103DB00005AC70CC0022002804D1275E002F00DA69
:103DC00022801A803D4F3F787F1EB84205D10020E7
:103DD000185E002800DA1A802280002904D1705E63
:103DE000002800DA32802A8035480078401C814261
:103DF00005D10020285E002800DA2A803280F0BD3C
:103E0000F0B59446294A00252E4F54682B46FE569D
:103E1000CA5C36187600A65F5B1C564375195BB208
:103E2000042BF4DB4200A25E0B795A43551905239B
:103E3000FE18203E1F22B25616187600CA5CA65FF6
:103E40005B1C564375195BB2092BF1DB60460541DB
:103E500028B2F0BDFFB589B006460D461F460024C6
:103E600003AA04A900B205F00DFE002D35D0154DB2
:103E70000123EB56032104226956AA569B190627F3
:103E800089199219EF570948BD192F0440681B047E
:103E90007500DB0B1204455FC35A6E4689B2B382CC
:103EA000D20B11E00A02000074370000EC1B000086
:103EB000B4170000E0360000B8190000FEB0001092
:103EC000FFB0001070030000825A32834900415A4B
:103ED000B183F90B405A308444E07A7A394630464F
:103EE000FFF78EFF0546FE48012141567A7A881970
:103EF00080B23946FFF784FF014668468182F84860
:103F0000062141567A7A881980B23946FFF778FF40
:103F1000014668460184F248032141567A7A88199D
:103F200080B23946FFF76CFF014668468183EC4852
:103F3000042141567A7A881980B23946FFF760FF2A
:103F400001466846018308AA05A906A86E4607C669
:103F50006846007B07AB41B26846007C2A4640B207
:103F6000FFF725FF0B98C00759D06A461C21515E08
:103F700018202B46105E994203DD0B46814200DA81
:103F80000346D94AD74E127852080292994210D16C
:103F900083420ED16846007C810089194A681299D3
:103FA0000A60029905F07CFD002800D001200DB0C8
:103FB000F0BDCE4A0746927A6846007C002A0BD0B4
:103FC00080008446801982680197009242686046AA
:103FD0003058FFF798FE0AE0800084468019826816
:103FE00001970092426860463058FFF72BFE002888
:103FF00000DA0020BE490978890072588919496899
:1040000051184A10824200DC481012990860684634
:10401000007C029905F044FD002800D001240B9893
:10402000800755D568461421415E20262B46865FC1
:10403000994203DD0B46B14200DA3346AC48A94D44
:104040000078C0354008029099420FD1B3420DD19B
:104050006846017B88004019426813980260029804
:1040600005F01EFD0028A2D00220A0E79F48807A1C
:1040700000286846007B09D08000421997680097A5
:10408000019652682858FFF73EFE08E0800042196A
:1040900097680097019652682858FFF7D3FD0028CB
:1040A00000DA00209049097889006A58491949685E
:1040B00051184A10824200DC481013990860684683
:1040C000017B029805F0ECFC002801D0A41C24B26E
:1040D00020466CE7FEB50C46074601461546854866
:1040E00002F0FFFB06463946824802F0E1FB410739
:1040F00081480195009428D530214E433618F08828
:104100007E4B01220021FFF7A5FE002801DB0128DC
:1041100007D1019500940122F088784B1146FFF7F2
:1041200099FE764B01950094F0880A330222002113
:10413000FFF790FE002801DB022821D16F4B01958B
:1041400000940A33F088022217E030214E436B4B73
:104150003618F0880A3B03220021FFF77BFE002877
:1041600005DB012803D0022801D0032808D1634BC6
:1041700001950094F0880A3B03220121FFF76AFEB3
:10418000FEBDF0B50020AFB00746289001202C906E
:10419000FEF784F9841C0021259001702598417058
:1041A000684601724172564823912D9055482E90D1
:1041B000554827904F48239902F06AFB002874D095
:1041C0006846017A4948807881426ED249482399ED
:1041D00002F06EFB06464748239902F063FB2690E7
:1041E000F00663D42698042860D04248239902F050
:1041F00078FB3021299048433F4945180A20285E22
:10420000C1B22891710704D4A989490701D40428AF
:1042100065DC21AA22A92398FFF75CFF0090062005
:10422000285E2BAA2AA905F02DFC0098002873DA35
:10423000A889400779D528A8007A2A498000401823
:1042400027994068497E0841229028A8007B25498B
:104250008000C031401827994068897E084121902C
:1042600021A922A8FFF773FC2298002801DA002078
:1042700022902549229A2039888D904201DC401EE7
:1042800022902198002801DA002021901E482199CF
:104290002038C08D884201DC401E21902D98007886
:1042A000002848D001284BD05FE068E111482399ED
:1042B00002F005FB401222900E48239902F005FB04
:1042C000401221900B48239902F005FB20A9088297
:1042D000269804281FD1012203210C4819E024E06C
:1042E00070030000D8AE0010FFB0001010360000C0
:1042F000FEB00010EC1B000020110000EAB000101E
:10430000D417000000370000D8190000F07F0040EB
:1043100002E005F0E9FDA0E02798417E22980841DF
:1043200022902798817E219898E72820285E229065
:104330002A20285E93E76846007A002804D014E01B
:104340006846007A022810D2219801AB01B2229867
:104350006A4600B205F0BAFB6A4604210020515EAD
:10436000105E05F06CFD20AA10822198239903B2FB
:10437000229802B2C04802F0BAFAB0076DD53007F1
:1043800052D521AB22AABC48239902F0EDFA0822AB
:10439000B948239902F0F5FAB848C07F00282CD11B
:1043A000B849B74D497828894A1E504306F0C8F8E5
:1043B000219988420CDA21A922A8FFF7C8FBB1484D
:1043C00040784100288906F0B1F8219940182190E1
:1043D000AC484178288906F0A9F8219988420CDD7B
:1043E00021A922A8FFF7B3FBA648407841002889FD
:1043F00006F09CF82199081A21902298002801DAE9
:1044000000202290A049229A888D904201DC401E13
:1044100022902198002801DA00202190C88D21994E
:10442000884201DC401E219020A8008A009021983B
:10443000072103B22298019102B28F48239902F01A
:104440005EFA01220221914805F04EFD04F08DFC38
:10445000002802D0299804F08EFC2198239903B2F9
:10446000229802B2844802F05DFA01462C98012895
:1044700015D18848864A007810182030007B4043C8
:1044800088420CDB01AB6A467B48239902F059FA5B
:1044900069460020085E22900420085E219026983C
:1044A0000025042801D0052801D110250127B007D7
:1044B00002D5042005431BE024A8009021AB22AACA
:1044C00031462398FFF7EDFA2198239903B22298F9
:1044D00002B2694802F026FA0146082005436D48F9
:1044E0006D4A00784000801800894043884201DC12
:1044F00001271CE02E98807A00280CD002280AD0D0
:104500005D48239902F0E7F9014620A8008A05F0EA
:10451000C7FC002800D1012720A8008A04210090B0
:10452000002301911A465448239902F0E8F95B48A8
:10453000817800292CD0012739E0289850E002200A
:1045400000E001206A46127A0C235A435218D072B6
:104550006A46127A23985A43511808736A46107AA9
:10456000401C107220A8008A00902198072103B2F5
:104570002298019102B24048239902F0C0F9239891
:10458000401CC0B223900C2800D213E6002547E05F
:10459000690702D5C179002909D0E90602D5417A17
:1045A000002904D02907DDD5007A0028DAD16A462F
:1045B000127A0C214A4302A95218229850806A4666
:1045C000107A0C2250434018219B838020AA108A25
:1045D0006A46127A0C235A435218D0800028ACD174
:1045E0006A46127A0C235A4352181081022005435E
:1045F0006A46107A5843401885727007A1D59EE725
:104600000C202946414302A8081802260421865F8F
:10461000031D821C415E304605F058FA6D1CEDB258
:104620006846007AA842EBD8002F20D000211AE07B
:104630000C200A46424302A8101842882280828831
:104640006280C288A2800289A271827AE271C27AF3
:104650002272007B60722598259A00780A34401CEB
:10466000491C1070C9B26846007A8842E0D8259982
:104670000020085E2FB0F0BDEC1B0000B417000056
:1046800010360000F4370000B8190000F07F004039
:10469000843600000A02000074370000D43600009F
:1046A000F8B50C4600282AD10021042004F0C8FCEB
:1046B000134805F004FA134F26B2FDF7EFFE054646
:1046C000841C1148C1883868009005F039FF2180AA
:1046D00000980121401C386066800A20A080A071EB
:1046E0006172102020720720E071297000BF002144
:1046F000022004F0A5FC024805F0E1F9DDE7F8BD71
:10470000804F12009C02000010360000F7B5C80769
:10471000C00F4018F64A4000821892088AB09200F2
:104720000492F44A6C468218920892000692F24A69
:104730008018800880000590F04802780078D20741
:10474000D20F1018801CC3B201202080801E608010
:10475000A3805842E080581C2081581E6081DA43B3
:10476000A2814042E081002211E010465843049C9F
:1047700040000619059C0719002004E04400355B41
:10478000401C3D53C0B28842F8D3521CD2B20A98A2
:104790008242EAD300242DE020465843049A400088
:1047A00082180792069A82180892059A80180022A9
:1047B00009901BE009985500405F002814DD089E11
:1047C0000020AE19B646079EAD19AC4609E0470079
:1047D0006D46ED5F76466D00765B6746401C7E5306
:1047E000C0B20C9DA842F2D3521CD2B28A42E1D38D
:1047F000641CE4B20A988442CED30DB0F0BD00220E
:10480000002801D0102800D10122002901D01C2944
:1048100000D1521C022A01D00020704701207047AD
:10482000002807D00F2805D0002903D01B2901D06C
:104830000020704701207047F7B589B00A986A4692
:10484000C107C90F0818AA49400041188908890002
:104850000691A8494018800880000790A748017871
:104860000078C907C90F0818801CC1B20120019146
:104870001081801E50810199918101994842D08117
:104880000199491C11820198401E508201994042B1
:10489000C9439182D082002112E00198069A4843D0
:1048A00040008318079A8418002004E042009D5AB3
:1048B000401CA552C0B20A9A9042F7D3491CC9B213
:1048C00009988142E9D300204EE0019948430699B6
:1048D0004000451807994018844600243EE06300D4
:1048E000614659180891864900200978854E49008B
:1048F000891902468E460FE0510002AF7F5E089E86
:104900007F00F75F714604268E5F0A3EB74201DBE7
:10491000401CC0B2521CD2B20B998A42ECD38842DE
:1049200002D16046C05A16E04908491C814204D1B0
:1049300021460098FFF774FF08E00B998908491C8D
:10494000814207D121460098FFF759FF6146C95AB5
:10495000484300E00020641CE852E4B20A98844214
:10496000BDD30098401CC0B2099900908842ACD3D6
:104970000CB0F0BDF8B561495D4B08780A78C00706
:10498000C00F80184200D21892089200801C00923A
:10499000C6B25B48097800788E4641005B485A4AA7
:1049A00008181778408A7743844600222AE0009846
:1049B0005100081800210B4605E05C00045F002C44
:1049C00000DD61189B19BB42F7DB614518DB4C4BDE
:1049D0004E4C1B785D002D19ED884D43E118897B05
:1049E0000D4100210AE04B00C45E002C05DDAC4205
:1049F00001DB641B00E00024C4528919B942F2DBD8
:104A0000521CD2B27245D2D3F8BDF0B53B4985B045
:104A100008780A78C007C00F8018394A1278530006
:104A20003A4A9B1816229A5E0092324B4200D218E4
:104A300092089200801CC0B2039033480192007823
:104A400002900E78002532E003980022684341006E
:104A50000198009B0C185B105B42104611469C4667
:104A60000BE05300E35E009FBB4204DA9C4502DA90
:104A7000C018491C09B2521C12B2B242F1DB05F057
:104A80005FFD1F49214B09784A00D21852894243E1
:104A90005818007C0241002005E04100635A9B1A2F
:104AA000401C635200B2B042F7DB6D1C2DB202987D
:104AB0008542C9DB05B0F0BD70B5FFF7A6FF14480D
:104AC00001F08AFF124802F01BF8FFF753FF11486C
:104AD000007800280BD0094D0B4C0822297820784B
:104AE000FFF7AAFE042229782078FFF70FFE70BD99
:104AF000D922004099480040396C0040FFB00010B6
:104B00000A02000084360000FEB000102C360000BF
:104B1000941E00002102000010B5FE48FC49FE4B27
:104B2000016019781A78C907C90F8918FB4AFC4C2B
:104B30008A189208920042608A1C49000919890863
:104B400002818900C1600282F6494161F6498161B2
:104B5000F6490162F649C161F649CA888285098928
:104B6000C185F5480178EB48203041751978817589
:104B700004214176817605F0CDF910BDF0B5EF4FF7
:104B8000002384465C1E3D787E7811E0E8188000A2
:104B9000C0194079884209D1E81844B2A000C01970
:104BA0000623C35E934205DAC28003E05B1CDBB2DE
:104BB0009E42EBD8002C14DAB8781E2811D280005F
:104BC000C019C280BA7860469200D2191071B878C4
:104BD0008000C01941717878401C7870B878401C0A
:104BE000B870F0BD70B5302569430468303961187C
:104BF000048A5E005443E418CC800024E4430C8112
:104C000001248C818A700A700A71CB704B704B71D1
:104C1000058AC06855436D00AD19405FC84D9200CC
:104C200052194861526805465543EA178D61CA61B9
:104C30009A00C44BD21852685043C2174A620862A5
:104C40004C8170BD0022BD49012803D088780870CE
:104C50004A7070470A70FBE7F0B50546008AA1B0BC
:104C6000C0B2119028890024C1B2B4480C9184705C
:104C700028462030427D1B92807D1F90A8690E90AF
:104C800068690D90A548921C26465143801F05F087
:104C90004BFC40210E9805F045FC0020302141439B
:104CA0000C312A68401CC0B256521428F6D300209A
:104CB00098E10D990E980E910D90402105F032FC6F
:104CC000002087E111991222484341000898AA5E0A
:104CD00040000818E96841180020085E82427DDC27
:104CE000089B0E9AD3185A78002A77D1119A1E275A
:104CF000520010928A1A1646203EF75F8742EEDC79
:104D00000026965F8642EADC0226965F8642E6DC53
:104D10000A46203A1E26965F8642E0DC02228A5E20
:104D20008242DCDC01269E70109A1E275218134620
:104D3000203BDF5F8742D2DC089F0D9BDE55109B36
:104D4000C95E8142CBDC089B0D99C9184E700223C5
:104D5000D35E8342C3DC8E70142C7DD2601C209005
:104D6000C0B20990302128684C43041900200B90F0
:104D7000E9690A980870296A089808700A9A0C99D3
:104D80006B6851435A180899099888540998FFF795
:104D900059FF2846089B0A9A0999FFF723FF802E9E
:104DA00001DB0B9608E1E9690B980C9A095C1291FA
:104DB000296A095C1C91129911986B6848431C99E7
:104DC000400049004018E968401812994A431C996C
:104DD0009A1851180022825E0F9200E0F7E00B9AB9
:104DE000521C12B20B92109A831A1718821E02924A
:104DF000801C00939C4603900C984B1E081A0C9A3A
:104E000001978A181593139063469B1E0493491CBF
:104E100014921691BB1E0593411E63469B1C06937C
:104E20001791BB1C511E401C521C19900020079367
:104E30001A92189107461E90B80013A91D900858A1
:104E40000178002910D0099881420DD01D9A68463A
:104E500080580022825E00E0B5E00F98824200DDBB
:104E600002460998FFF78AFE1D98694608580021F6
:104E7000415E0F98814208DD1D9813A908580178FA
:104E80000998814201D001201E907F1C7FB2082F1B
:104E9000D2DB1E9800287DD1820013A989580B7897
:104EA000002B78D16B469B5800221D939A5E3223CB
:104EB000EB5E9A427BDB0F9B9A4278DC099A0A7080
:104EC000214900230A5C1299511849B2EA698C46BB
:104ED00091551E490A5C1C99511849B22A6A8E469E
:104EE00091551D996269CB5E761CD118616161464E
:104EF000134A890089181D9A00234968D35EE7691F
:104F00005943A369CA17C9187A4136B2E2611FE052
:104F100020110000B8190000FFB00010E615004095
:104F2000D922004020100000601000005C16000034
:104F3000E416000010360000FEB00010A0100000C3
:104F4000D8AE001098AF0010100200001802000048
:104F5000A1617146FE4A890089181D9A002349689B
:104F6000D35E676A5943236ACA17C9187A416262D5
:104F7000216261890222491C6181A2566146624513
:104F800000DAA170002161566246614500DD2270A1
:104F9000032201E010E00AE0A2567146724500DAF1
:104FA000E1700122A2567146724500DD6170401C1D
:104FB00040B2082800DA6FE70B98B04200D0EEE666
:104FC0002098C4B203E01B980A901F980890089894
:104FD000401CC0B21F99089088420A9800D271E61E
:104FE000401CC0B21B990A90884200D261E620465C
:104FF00021B0F0BD30B5302413686043C0180624DA
:10500000045FD2686300D55E4B00D35EAB4202DB27
:105010000481C18030BD0824045F002C03DB6400E0
:10502000125F9342F6DD018130BDF7B584460C4630
:10503000029830250368614630206C434143A64600
:10504000CA18E41850696569401950619069A669E9
:10505000D569E76986197D419661D561106A266A2E
:10506000556A676A86197D4116625562D089E5895D
:105070004019D081108A258A40191082508965898B
:10508000401950819089A589284390810020A081F2
:105090000220022510566557A84200DA95700325B4
:1050A000032055572056854200DAD07070465D5671
:1050B0001856854200DD58540121012051562056D2
:1050C000814200DD507006216046615EC0B2029AE6
:1050D000FFF790FF0821615E002904DB6046C0B243
:1050E000029AFFF787FFFEBDF7B584B004F020FFFA
:1050F0000498049D04680020964A203509E0810048
:1051000089180B795B1E0B714B795B1E401C4B7130
:10511000C0B291788142F2D839E100208446087902
:1051200030225043001942894879302358430019EE
:105130004089101882B204200856039005200856B2
:105140000190012032E08349830059180B79302601
:10515000029373431B195E894B79302700937B437D
:105160001B195B89F3189BB2934208D21A46042399
:10517000CB5603930523CB568446019314E0934208
:1051800012D1039F029B734EBB420DD1019F009B26
:10519000BB4209D10623CB5E6146890089190626E8
:1051A0008E5FB34200DACB80401CC0B269498B7875
:1051B0008342C8D8604681006648042608180290D9
:1051C00005218657415603918E420BD1614A917851
:1051D000890089180B8883804988C1809078401E97
:1051E0009070D4E0084630214843011930207043C4
:1051F000AB7E6A7E00190746019104F0A9FE0028E3
:105200007CDA0498019AC1680620385E0623D35ED2
:105210004000085E5A00895E884200DD08464E491B
:10522000097800291AD1E97D06224143287E0141EF
:105230000298825E914211DD04987969008E814264
:105240000CDD01994969814208DD01980A21415E1E
:105250000A20385E0918287D814230DBA87E009044
:105260006B7E01223846019904F0C6FE3146049A4D
:105270000398FFF7DAFE0598364B401EC0B2059042
:10528000997802988900C9180A8882804988C18063
:105290009878401E987003990020CAB20BE08100F4
:1052A000C9180F79B74200D10A714F79B74200D1BE
:1052B0004A71401CC0B29978814268D9EFE7A87E54
:1052C00000906B7E04223846019904F095FE214A35
:1052D00002989178890089180B8883804988C18059
:1052E0009078401E90700198019A818904200143B2
:1052F0009181B9890143B98149E0FFE7410715D59B
:10530000144A02989178890089180B88838049880B
:10531000C1809078401E9070019804228089019984
:1053200010438881B8891043B88130E0C0072ED07F
:105330003146049A0398FFF778FE0598054B401E06
:10534000C0B20590997802988900C9180A8805E0CA
:1053500098AF0010A0100000210200008280498850
:10536000C1809878401E987003990020CAB20BE063
:105370008100C9180F79B74200D10A714F79B7423D
:1053800000D14A71401CC0B299788142F0D8FC49E2
:105390008878002800D0C0E604F06FFE0026059F44
:1053A00013E030207843001900908089C00708D1AD
:1053B00009E03020704300198089C0070BD0761CAB
:1053C00076B2142EF5DB7F1CFFB2142FE9D30699B9
:1053D0000020086043E0302070430019302200991B
:1053E000FBF736F900200099761C888176B2EAE74F
:1053F000302148430619B089C0072ED07269009247
:10540000D317F169B06904F0EFFF6A7E04F086FFFC
:1054100000B230850190009A716AD317306A04F0A7
:10542000E3FFAA7E04F07AFF70850498019A818DCB
:105430000020491E04F063FB308504982A22C18DA8
:10544000B25E491E002004F05AFB70850698016880
:105450007069814201DA06990860781CC0B205992A
:1054600007468842C4D3084607B0F0BDFFB5FFB079
:10547000844698B014460020302103464B436146D1
:1054800059188A89D20720D04D89460068AA9553B9
:10549000860054AA4D699551C20004AD8E69AD18BD
:1054A000CF69C0C52CAF0D6ABA184E6A60C28D783C
:1054B00082AA1554CD788CAA15546246D35C87AA6B
:1054C00013544A7891A90A5403E00021430068AAC2
:1054D000D152401CC0B21428CED3989900208978AC
:1054E0008E460CE09899820051184A7972AB521E90
:1054F0001A5409797AAA491E1154401CC0B2864533
:10550000F0D800216EE098988A0010180622825E7A
:105510009A98824264DB72AD7AAB685C5A5C9042C6
:105520005ED0470068ADBC46EE5B5300EF5AF619FB
:105530006746EE530026EE5254AB87009600DD59C5
:105540009E59AD19DD51C500AC4604AB63441F68DC
:105550005E68D30004AD0093EB181D685B687F198B
:105560005E4104AB63441F605E602CAB63441F6804
:105570005E68009B2CADEB181D685B687F195E416F
:105580002CAB63441F605E6082AB1D5C9E5CB542C9
:1055900000D21E548CAE355CB35C9D4200D23354B5
:1055A00087AE355CB35C9D4200D9335491AD2B5C22
:1055B000AA5C934200D92A54481CC0B272AA7AAE9F
:1055C0000CE0155C735C9D4201D1555C1554355C53
:1055D0009D4201D1535C3354401CC0B28645F0D883
:1055E000491CC9B28E458ED8002020806548608055
:1055F0000020632568AA54AB4100515A00290BD002
:105600002688B14201D9218005466688B14203D27D
:10561000618081005958A160401CC0B21428EBD3AE
:10562000632D4ED0A8001A5862608CA8405DA0730C
:1056300082A8405D207391A8405DE07387A8405D1B
:105640006073174650480090407D00213A46FB1792
:1056500004F077FE0646E8000191029004A94A4D45
:10566000091803C9203DAA8D002304F06AFE3246C2
:10567000019B04F0B9FE06B2268200980021807DCD
:105680003A46FB1704F05DFE0746009102982CA9EC
:10569000091803C9EA8D002304F053FE3A46009B23
:1056A00004F0A2FE00B26082002E01DA002103E0C5
:1056B000A98D8E4201DB491E2182002804DA0020D8
:1056C00060827FB01CB0F0BDE98D8842F9DB491ED5
:1056D0006182F6E7F3B5002081B086462B4D024685
:1056E00047E05000295E002302981C4681423FDDBE
:1056F000D0B2844670460601019801218255019F6F
:10570000F619317311462FE04F000097EF5F5B1CD5
:10571000381984B260464000285E9BB2874201DDA2
:10572000C8B28446009F02207F19385E029FB842AB
:1057300004DD17484F1C0078874214DBB38071707A
:105740006046B460B07013480A460168994200D2BE
:10575000036011480168A14200D204607046401CF9
:10576000C0B2864604E0491C094F3F78B942CBDB02
:10577000521C074800788242B3DB7046FEBD000031
:10578000A01000002F750000D8190000201600009E
:10579000FFB000102402000028020000F8B5002429
:1057A000A54F1D2625467601E0B23946FDF7F6F8ED
:1057B00000228554521CB242FBDB641C042CF3DB38
:1057C000F8BD10B5FFF7EAFF38219C4804F0ACFEA5
:1057D0009A480121203081740022C274427581757B
:1057E000974BC1751878440096488481964C24786C
:1057F00004751C78447401749449016093498031A4
:1058000041601978C181924909784182826010BD56
:10581000F0B5458A81686D4300292AD0002224E032
:1058200081890368514359188C46C18943685143A3
:1058300084685B186618002112E0745C002C0DD19E
:105840004C0067463C5F6443AC4201D9002404E04D
:105850005C5C077DA74201D9641C5C54491CC9B239
:10586000447C8C42E9D8521CD2B2017C9142D7D8F8
:10587000F0BD00221DE08189036851435E18C18993
:10588000436851435B1800210EE04C00345F6443D1
:10589000AC4201D9002404E05C5C077DA74201D939
:1058A000641C5C54491CC9B2447C8C42EDD8521C27
:1058B000D2B2017C9142DED8F0BD60480022203097
:1058C000C274644801684068091809D56249C9680A
:1058D000884205DA61480121417082700321C1705C
:1058E000704770B5049CDD0703D0002C01D05B1C11
:1058F000DBB25A43002307E09C005E000D59865F2F
:10590000AD195B1C0D519BB29342F5D370BDFFB531
:1059100081B006460B980D9C0A9AC50703D0002C4F
:1059200001D0401CC0B2424315B2022B02D0002469
:1059300000911CE00F4600240AE0A00030580C99AA
:105940008840039904F0FCFD6100641C785224B285
:10595000AC42F2DB05B0F0BDA700F0590C998840CD
:10596000039904F0EDFD0099641CC85124B2AC42C7
:10597000F2DBEFE7F0B5069E089F079D042E00D0EE
:105980000446ED1E6DB2002F2AD0042E01D0002057
:1059900022E000240EE0165D9E420AD3A7006600B6
:1059A000BC468E5FC759AE40BE196746C651002639
:1059B0001655641C059EB442EDDBF0BD165C9E429C
:1059C00009D34600B446A75B8E5BAE40BF1966465E
:1059D000A75300261654401C059EB042EEDBF0BDD6
:1059E000042E01D0002022E000240EE0165D9E422D
:1059F0000AD3A7006600BC468E5FC759AE40BE1BE7
:105A00006746C65100261655641C059EB442EDDB60
:105A1000F0BD165C9E4209D34600B446A75B8E5B80
:105A2000AE40BF1B6646A75300261654401C059E79
:105A3000B042EEDBF0BD0000202B00006C17000030
:105A4000FFB00010F41900000AB1001090360040B9
:105A50000BB10010A4170000E0360000D4170000BE
:105A600010B50022C368114630244C4328341C5D15
:105A7000002C01D001220C21491CC9B20C29F3D3FE
:105A8000002A01D0002010BDFE49096B816301206E
:105A900010BD022807D0042805D0052803D003280C
:105AA00001D0002070470120704710B50146044620
:105AB0002031C87B0022401E0006000EC87316D09D
:105AC00000213020E36848431B182820C05CFFF702
:105AD000E0FF002803D01B68934200D91A46491CF6
:105AE000C9B20C29EDD3E748006B801A606310BD82
:105AF00001462031CA7B521CD2B2CA73012A02D19C
:105B0000E049096B41637047F8B584460846203088
:105B100064460025642720340E460372002A0ED006
:105B2000022A1BD0012A2BD0042A47D0052A54D0A0
:105B3000032A61D0062A68D07D422846F8BD012B91
:105B400004D0022B06D00025ED43F6E7A07B401CD5
:105B5000A073F2E7A07B401CA07318E0032B08D0D1
:105B6000042BEAD0052BE8D0002B2CD00A25ED43DE
:105B7000E3E701214172E0E76046FFF796FF13E09B
:105B8000022B04D0002B0CD01425ED43D5E7604642
:105B9000FFF7AEFF708C3842CFD1207C401C2074C0
:105BA000CBE7A07B401EA0736046FFF759FF00289B
:105BB000C3D00521604600F04BF8BEE7002B02D0B1
:105BC0001E25ED43B9E7A07B401EA073708C3842C0
:105BD000D2D1207C401E2074CEE7062B02D028258F
:105BE000ED43AAE7708C384202D1207C401E20741D
:105BF0006046FFF75AFFA0E7022B9ED0042B9CD0F3
:105C0000052B9AD03225ED4397E7002B02D03C2597
:105C1000ED4392E7207C401E2074C2E770B5C56852
:105C2000064600243020604341192820425C022AA5
:105C300001D0032A07D1488C4006800F03D00523EA
:105C40003046FFF761FF641CE4B20C2CEAD370BD50
:105C5000F8B5044601252122DF26DE2720340B007B
:105C600004F00FFF0906080B18212A454D635F0059
:105C700000201FE0A07C252159E0A07CFB210840EA
:105C80000A210140A074022901D1104312E02843E7
:105C900030400FE0A07C02210843A0744107F4D4F7
:105CA0000107F4D4F1E7A07CFD210840A07441076E
:105CB000EBD43840A07434E0A07CF7210840A074F5
:105CC000410701D5104306E081070ED5410607D5EF
:105CD0002843CF210840A074C0B2BF210840E9E7A3
:105CE000C106EFD428433040F5E73840F3E7A17C04
:105CF000482211433140A174FFF790FF11E0A17CCD
:105D00000A070ED44A07920F0BD05F4A806B527875
