:100000004F42505F5241572056310D0A4134203241
:1000100046203330204544203230203134203245D0
:100020000D0A3239303533440D0A444145313230FE
:100030000D0A303032352030303030203030383218
:1000400020334120303020303020303020303320F9
:100050003030204646204646204643204646203043
:100060003420303020303420303020464320464683
:100070002030302030302046432046462046342071
:100080004646203130203030203044203030204669
:100090003520464620464520464620303020303028
:1000A000204242204646203033203030203033205A
:1000B0003031203937203030204636204646203037
:1000C000332030302030302030302042432046462C
:1000D000204138203030203638203032203632204F
:1000E00030312030442030302046412046462030F8
:1000F00030203030204244204646204141203030DC
:1001000020444420303120433020303020463820F5
:1001100046462030352030302030302030302042EC
:1001200034204646203142203030203833203030D1
:1001300020313320303020463520464620464320AB
:1001400046462030302030302030302030302030D3
:10015000382030302046452046462046442046463A
:100160002030342030302046452046462030302094
:1001700030302030302030302030302030302030CF
:1001800030203030203030203030203030203030BF
:1001900020303020303020303020303020303020BF
:1001A000303020303020303020303020303020309F
:1001B000302030302030302030302030302030308F
:1001C0002030302030300D0A3030343420303030A0
:1001D0003020303034392030302030302030302062
:1001E000303020303020303020303020303020305F
:1001F000302030302030302030302030302030304F
:10020000203030203030203030203030203030204E
:10021000303020303020303020303020303020302E
:10022000302030302030302030302030302030301E
:10023000203030203030203030203030203030201E
:1002400030302030302030302030302030302030FE
:1002500030203030203030203030203030203030EE
:1002600020303020303020303020303020303020EE
:1002700030302030302030302030302030302030CE
:1002800030203030203030203030203030203030BE
:1002900020303020303020303020303020303020BE
:1002A000303020303020303020303020303020309E
:1002B000300D0A303032362030303030203030349B
:1002C0003020303020314520454420304220303429
:1002D0002031302030332031392030302030302070
:1002E000303020303020303020303020303020305E
:1002F000302030302030302030302030302030304E
:10030000203030203030203030203030203030204D
:10031000303020303020303020303020303020302D
:10032000302030302030302030302030302030301D
:10033000203030203030203030203030203030201D
:1003400030302030302030302030302030302030FD
:1003500030203030203030203030203030203030ED
:1003600020303020303020303020303020303020ED
:1003700030302030302030302030302030302030CD
:10038000300D0A30303437203030303020303043B8
:100390003820303020363420313420333220304180
:1003A0002032322033432031342031392030302084
:1003B000333220313420313420303020303020317D
:1003C0004520334320304620303020303220303238
:1003D000203134203030203332203032204630205B
:1003E0003738203332203030203030203030203049
:1003F0003020363420313420333220304120323224
:100400002033432031342031392030302030302027
:10041000333220313420313420303020303020311C
:1004200045203343203046203030203032203032D7
:1004300020313420303020333220303220463020FA
:1004400037382033322030302030302038302030E0
:1004500030203530203030203139203033203232D6
:1004600020323820303020303920303020303020D9
:100470003145203044203043203030203343203079
:10048000412033432030352030302030312030308F
:100490002030302030302030362034332044322099
:1004A0003343203046203030203030203831203265
:1004B0003220303120303120303220303220303084
:1004C000203030203030203143203031203139206D
:1004D0003031203139203030203030203030203061
:1004E000302030302030302030302030302030305C
:1004F0002030302030302030302030362030362050
:10050000303020303020303020313620313620302D
:1005100043203030203030203036203043203036F9
:10052000203030203030203134203134203043200E
:100530003030203030203031203032203030203008
:1005400035203030203030203332203139203138DE
:1005500020313420303120303220303020464620C7
:1005600030302030302030302030302030302030DB
:1005700030203030203030203031203030203335C2
:1005800020333720303020303020303020303020C1
:10059000303420303120303020303520303520319B
:1005A0003920303020303020304420304320303467
:1005B000203031203030204646203030203030206E
:1005C000303020303020303020303020303020307B
:1005D0003020303520303020333520363420303054
:1005E0002030302030302030300D0A303036452079
:1005F0003030303020303032382045312030362015
:1006000031392030382038312030372043392030FC
:1006100037204139203037204231203037203339DC
:100620002030382035312030382032392030382001
:1006300037312030382035392030372030312030E4
:1006400038203439203038203839203037203839B4
:1006500020303620303120303020303120303020F2
:1006600030312030302030312030302030312030D7
:10067000300D0A30303645203030303120303032C5
:1006800038203030203030203030203030203030B2
:1006900020303020303020303020303020303020BA
:1006A000303020303020303020303020303020309A
:1006B000302030302030302030302030302030308A
:1006C000203030203030203030203030203030208A
:1006D000303020303020303020303020303020306A
:1006E000302030302030302030302030302030305A
:1006F0002030302030302030300D0A303036452068
:10070000303030322030303238203030203030201D
:100710003030203030203030203030203030203029
:100720003020303020303020303020303020303019
:100730002030302030302030302030302030302019
:1007400030302030302030302030302030302030F9
:1007500030203030203030203030203030203030E9
:1007600020303020303020303020303020303020E9
:1007700030302030302030302030302030302030C9
:10078000300D0A30303645203030303320303032B2
:100790003820323120303720313920303820333979
:1007A000203037204139203037203639203037206B
:1007B0004231203037203339203038203239203050
:1007C000382039392030382030392030382046312F
:1007D0002030372036312030372039312030382052
:1007E000393920303720443920303620303120301C
:1007F0003020303120303020303120303020303146
:100800002030302030312030300D0A303036452055
:10081000303030342030303238203030203030200A
:100820003030203030203030203030203030203018
:100830003020303020303020303020303020303008
:100840002030302030302030302030302030302008
:1008500030302030302030302030302030302030E8
:1008600030203030203030203030203030203030D8
:1008700020303020303020303020303020303020D8
:1008800030302030302030302030302030302030B8
:10089000300D0A303036452030303035203030329F
:1008A0003820303020303020303020303020303090
:1008B0002030302030302030302030302030302098
:1008C0003030203030203030203030203030203078
:1008D0003020303020303020303020303020303068
:1008E0002030302030302030302030302030302068
:1008F0003030203030203030203030203030203048
:100900003020303020303020303020303020303037
:100910002030302030302030300D0A303036452045
:1009200030303036203030323820414220303320D1
:100930004142203033204142203033204142203098
:100940003320414220303320394220303320394295
:1009500020303320394220303320393320303320C7
:10096000393320303320413320303320413320309D
:100970003320413320303320414220303320423372
:1009800020303320303320303020303320303020BE
:10099000303320303020303320303020303320309E
:1009A000300D0A303036452030303037203030328C
:1009B000382030302030302030302030302030307F
:1009C0002030302030302030302030302030302087
:1009D0003030203030203030203030203030203067
:1009E0003020303020303020303020303020303057
:1009F0002030302030302030302030302030302057
:100A00003030203030203030203030203030203036
:100A10003020303020303020303020303020303026
:100A20002030302030302030300D0A303036452034
:100A300030303038203030323820303020303020E4
:100A400030302030302030302030302030302030F6
:100A500030203030203030203030203030203030E6
:100A600020303020303020303020303020303020E6
:100A700030302030302030302030302030302030C6
:100A800030203030203030203030203030203030B6
:100A900020303020303020303020303020303020B6
:100AA0003030203030203030203030203030203096
:100AB000300D0A3030303720303030302030303098
:100AC0003520313820303820314520433220303035
:100AD0000D0A303030382030303030203030304661
:100AE0002033372030302030342030312030302057
:100AF0003035203035203139203030203030203032
:100B0000422030312030312030312038300D0A3051
:100B100030304620303030302030303042203030DD
:100B20002030302030302030302030302030302025
:100B300030302030302030302030302030300D0A3E
:100B400030303132203030303020303030322030D0
:100B5000302030300D0A303031332030303030200A
:100B600030303036203030203030203030203030BF
:100B70002030302030300D0A3030313920303030E4
:100B800030203030313020303320303020313820A8
:100B90003739204138203631203030203030203075
:100BA000302030302046412038382031332030305A
:100BB0002030302030300D0A3030323320303030A9
:100BC000302030303037203032203238203145204C
:100BD00046412030312030352030320D0A3030325D
:100BE0003820303030302030303037203331203032
:100BF00041203041203145203145203030203031F6
:100C00000D0A303032412030303030203030304525
:100C100020303120303020464620324420464620C5
:100C200030352030302030302030302030302043FC
:100C3000382030332030302030300D0A303032420E
:100C400020303030302030303131203030203030E2
:100C500020303020303020303020303020303020F4
:100C600030302030302030302030302030302030D4
:100C7000302030302030302030302030300D0A30FD
:100C8000303245203030303020303030432030306A
:100C900020303020303620303620303120303020A7
:100CA0003030203336203031203031203030203089
:100CB000300D0A3030324620303030302030303283
:100CC0004620303020303020303020303020303559
:100CD0002030302030302030302030302030302074
:100CE0003030203030203030203030203030203054
:100CF0003020303020303020303020303020303044
:100D00002030302030302030302030302030302043
:100D10003030203030203030203030203030203023
:100D20003020303020303020303020303020303013
:100D30002030302030302030302030302030302013
:100D400030302030302030302030302030300D0A2C
:100D500030303338203030303020303032342030B2
:100D600032203030203031203234203041203039B0
:100D700020303920303920303920303920303820A7
:100D8000303820303820303820303820303820308B
:100D9000372030372030362030362030362030357E
:100DA000203034203034203035203035203037208A
:100DB000303820303820303820303720303720305D
:100DC000302030302030302030300D0A3030334485
:100DD000203030303020303030352030332030304B
:100DE0002030302038382031330D0A303033442061
:100DF000303030312030303035203030203030202D
:100E000030302030302030300D0A30303344203044
:100E1000303032203030303520303020303020300B
:100E2000302030302030300D0A3030334420303024
:100E300030332030303035203030203030203030EA
:100E40002030302030300D0A303033442030303004
:100E500034203030303520303020303020303020D9
:100E600030302030300D0A303033442030303035CF
:100E700020303030352030302030302030302030BD
:100E8000302030300D0A30303431203030303020D6
:100E9000303031372038312030412041412030304E
:100EA000203830203031204141203030203830206F
:100EB000303120304320303020303020303020306E
:100EC0003020303020303020313120303020303070
:100ED0002030302030302030300D0A303034312096
:100EE0003030303120303031372030302030302039
:100EF0003030203030203030203030203030203042
:100F00003020303020303020303020303020303031
:100F10002030302030302030302030302030302031
:100F200030302030302030302030302030300D0A4A
:100F300030303431203030303220303031372030D2
:100F400030203030203030203030203030203030F1
:100F500020303020303020303020303020303020F1
:100F600030302030302030302030302030302030D1
:100F700030203030203030203030203030203030C1
:100F80002030300D0A3030343620303030302030D0
:100F9000303041203033204338203030203236206A
:100FA0003030203030203346203030203030203078
:100FB000300D0A303034362030303031203030308F
:100FC0004120303120373820303020363820303042
:100FD0002030302030322030312030302030370D7A
:100FE0000A3030343620303030322030303041203A
:100FF0003031203738203030203634203030203027
:10100000302031452030412030302031310D0A3040
:1010100030343620303030332030303041203030E2
:10102000203738203030203530203030203030200C
:1010300030312031462030302030300D0A3030340D
:1010400036203030303420303030412030312037BD
:1010500032203030203638203030203030203032CE
:101060002032302030302030370D0A3030343620F6
:101070003030303520303030412030312037322090
:10108000303020363420303020303020314520328E
:10109000412030302031310D0A30303436203030AC
:1010A0003036203030304120303020373220303060
:1010B000203445203030203030203030203345205F
:1010C00030302030300D0A30303436203030303778
:1010D0002030303041203030203732203030203541
:1010E0003020303020303020303120334620303036
:1010F0002030300D0A303034362030303038203057
:1011000030304120303120304420303020363820FB
:101110003030203030203032203430203030203019
:10112000370D0A303034362030303039203030300E
:1011300041203031203044203030203634203030CF
:101140002030302031452034412030302031310DE5
:101150000A303034362030303041203030304120B9
:1011600030302030442030302034452030302030A2
:10117000302030302035452030302030300D0A30DE
:101180003034362030303042203030304120303062
:101190002030442030302035302030302030302096
:1011A00030312035462030302030300D0A30303498
:1011B000362030303043203030304120303120373D
:1011C000392030302033442030302030302030314E
:1011D0002036302030302030300D0A303034362088
:1011E000303030442030303041203031203733200F
:1011F0003030203344203030203030203031203621
:10120000312030302030300D0A303034362030304C
:1012100030452030303041203031203738203030D8
:1012200020334420303020303020303120363220FE
:1012300030302030300D0A303034362030303046F7
:1012400020303030412030312037322030302033D0
:1012500044203030203030203031203633203030C0
:101260002030300D0A3030343620303031302030EC
:101270003030412030312043392030302030382088
:101280003030203030203032203843203030203091
:10129000370D0A30303436203030313120303030A4
:1012A0004120303120433920303020363420303056
:1012B0002030302031462039342030302030310D7C
:1012C0000A30303436203030313220303030412056
:1012D000303120313620303020324520303020303F
:1012E000302030342036412030302030300D0A306C
:1012F00030343620303031332030303041203031FE
:10130000203136203030203438203030203030202A
:1013100031332036422030302030300D0A30303426
:1013200036203030313420303030412030312031DF
:1013300038203030203245203030203030203034DA
:101340002036382030302030300D0A30303436200E
:1013500030303135203030304120303120313820AC
:1013600030302034382030302030302031332036B7
:10137000392030302030300D0A30303436203030D3
:10138000313620303030412030312031382030307B
:10139000203634203030203030203242203739207F
:1013A00030302030300D0A30303436203030313794
:1013B0002030303041203031203141203030203455
:1013C0003820303020303020313320363720303054
:1013D0002030300D0A303034362030303138203073
:1013E0003030412030312043392030302036462003
:1013F0003030203030203036203936203030203028
:10140000460D0A303034362030303139203030301B
:1014100041203031203141203030203245203030E1
:101420002030302030342036362030302030300D1F
:101430000A303034362030303141203030304120D5
:1014400030312031412030302036342030302030CF
:10145000302032422037382030302030300D0A30F2
:10146000303436203030314220303030412030317D
:1014700020313820303020363420303020303020B9
:1014800032302037442030302030300D0A303034B4
:10149000362030303143203030304120303120315F
:1014A000412030302036342030302030302032306F
:1014B0002037452030302030300D0A30303436208F
:1014C000303031442030303041203031203136202E
:1014D0003030203634203030203030203230203749
:1014E000462030302030300D0A3030343620303055
:1014F00031452030303041203030203138203030FC
:10150000203431203030203030203031203832202B
:1015100030302030300D0A30303436203030314613
:1015200020303030412030302031412030302034E4
:1015300031203030203030203031203833203030EE
:101540002030300D0A303034362030303230203008
:1015500030304120303020313620303020343120BE
:1015600030302030302030312038342030302030BE
:10157000300D0A30303436203030323120303030C7
:101580004120303120313820303020343720303085
:101590002030302034432038372030302030300D98
:1015A0000A30303436203030323220303030412072
:1015B000303120314120303020343720303020305D
:1015C000302034432038382030302030300D0A307D
:1015D000303436203030323320303030412030311A
:1015E0002031362030302034372030302030302049
:1015F00034432038392030302030300D0A30303438
:1016000036203030323420303030412030302030FD
:10161000302030302030302030302030302030301A
:101620002030302030302030300D0A303034362039
:1016300030303235203030304120303120434120AD
:1016400030302030382030302030302030322041CF
:10165000412030302030370D0A30303436203030E1
:10166000323620303030412030312043412030307C
:101670002036342030302030302031462042322095
:1016800030302030310D0A303034362030303237AF
:10169000203030304120303120434120303020365E
:1016A0004620303020303020303620423420303058
:1016B0002030460D0A303034382030303030203081
:1016C000303539204646203030203030203031202F
:1016D0003030203034203041203041203030203034
:1016E0003920324420303020303020303420333123
:1016F0002033372036372030452030302031392014
:101700003039203030203030203030203030203020
:101710003020303620303020303020303020303013
:101720002030432030302030302030302030302006
:1017300030302030302030462030302030392030DA
:1017400030203030203030203030203030203132E6
:1017500020303020303020303020303020313220E6
:1017600030302030302030302030302030302030C9
:10177000322032332038352030392039322041337D
:101780002039452042392030302032342032342074
:101790003234203234203030203238203238203277
:1017A0003820323820303020303020303320303074
:1017B0002041352030302030302030302030302073
:1017C00030302030302030302030302030300D0AA2
:1017D000303034442030303030203030303220301F
:1017E000302030300D0A3030344520303030302059
:1017F0003030304320383420303520303320303002
:101800002031392030312031302030302034362022
:1018100030302030302030300D0A30303446203027
:1018200030303020303030342030302030302030F4
:10183000302030300D0A3030344620303030312006
:1018400030303034203030203030203030203030D4
:101850000D0A3030344620303030322030303034D1
:101860002030302030302030302030300D0A303001
:10187000353020303030302030303045203033208B
:10188000303020364520353020333220433520306B
:101890003020373820314520303120303020303072
:1018A0002030302030330D0A3030353120303030A8
:1018B0003020303031322030302030302030302075
:1018C0003030203030203030203030203030203068
:1018D0003020303020303020303020303020303058
:1018E0002030302030302030302030300D0A303081
:1018F000353120303030312030303132203030201E
:101900003030203030203030203030203030203027
:101910003020303020303020303020303020303017
:101920002030302030302030302030302030302017
:1019300030300D0A30303534203030303020303007
:1019400030342030302030302030302030300D0A1C
:101950003030354420303030302030303145203088
:1019600045203030203030203337203034203030A4
:101970002030302037462030372046462030462061
:10198000464620304620303020363420303020315A
:101990003420303420303020303020324320303179
:1019A000203243203031203030203134203030207C
:1019B00031342030302030300D0A30303633203092
:1019C0003030302030303043203030203030203044
:1019D0003020303020303020303020303020303057
:1019E0002030302030302030302030300D0A303080
:1019F0003634203030303020303034352030422002
:101A0000373120303120303120303020303020301C
:101A100041203838203030203141203241203036CA
:101A200020304420374620303720313620323320D2
:101A300032302033392030302030462032412030BF
:101A40004420304220333720303420314320324686
:101A5000203043203039203145203044203043208D
:101A60003030203343203041203343203035203084
:101A700030203031203030203030203030203036AF
:101A8000203433204432203343203046203030206D
:101A9000303520303020303020303020303420318C
:101AA000362032332039392033422031452032422A
:101AB0002030302030302030302030302031342081
:101AC00043382030302030412043300D0A3030364A
:101AD000352030303030203030323020303020303F
:101AE0003020303020303020303020303020303046
:101AF0002030302030302030302030302030302046
:101B00003030203030203030203030203030203025
:101B10003020303020303020303020303020303015
:101B20002030302030302030302030302030302015
:101B300030302030302030302030300D0A30303618
:101B400038203030303020303030422030312030BA
:101B500030203530203030203139203033203232BF
:101B60002032382030302030392030330D0A3030E8
:101B70003643203030303020303034422039442059
:101B800030302030302030312030312030302030A3
:101B90003020303420303020303020303020303091
:101BA0002030302030302030302030302030302095
:101BB000303020303020313820303020303020306C
:101BC000302030302031382030302030302030305C
:101BD000203030203030203030203036203030205F
:101BE0003031203030203030203030203030203044
:101BF0003020323020303020303020303020303033
:101C00002032302030302030302030302030302032
:101C100030302030332030432036342030312030F3
:101C20003020303020303020303020303020333001
:101C30002030302030302030302030302033302001
:101C400030302030302030302030302030302031E3
:101C5000342030302038352030302030300D0A30FC
:101C6000303644203030303020303030392034327B
:101C700020303020303520303020303020303020BF
:101C800030302030302030330D0A303036462030AE
:101C90003030302030303145203030203030203569
:101CA000302030312032302032302030342030317A
:101CB0002030302046462030302030302030302058
:101CC0003030203030203030203030203030203064
:101CD0003520303020333520363420303020304528
:101CE0002030312030312030412030302030302041
:101CF00030300D0A30303646203030303120303030
:101D0000314520303020303020303020303020300D
:101D10003020303020303020303020303020303013
:101D20002030302030302030302030302030302013
:101D300030302030302030302030302030302030F3
:101D400030203030203030203336203031203031D8
:101D50002030302030302030302030300D0A30300C
:101D6000364620303030322030303145203030207F
:101D700030302035302030312032302032302030A9
:101D800030203030203030203030203030203030A3
:101D900020303020303020303020303020303020A3
:101DA0003030203030203030203030203030203083
:101DB000302030452030312030312030302030305C
:101DC0002030302030300D0A303037302030303085
:101DD000302030303035203030203030203030204E
:101DE00030302030300D0A30303730203030303154
:101DF000203030303520303020303020303020302E
:101E0000302030300D0A3030373120303030302043
:101E1000303030332030352030302030370D0A302C
:101E200030373320303030302030303134203034CF
:101E300020303020303020464620464620303020AA
:101E4000303020464620464620353020303020367F
:101E500034203030203032203345203032203030B2
:101E60002038362030302032330D0A3030373420DD
:101E70003030303020303046462030302030322074
:101E8000304120323220363520353420363320326E
:101E9000342041362030352032322036352035345A
:101EA0002036332032342035362030442032322060
:101EB0003741203634203633203234203535203037
:101EC0003920313420363520333420343620303236
:101ED0002032362030412032322037332036332032
:101EE0003634203233203136203030203432203620
:101EF00044203435203436203236203135203030FD
:101F000020303320364420363520363520303220FC
:101F100031362030422032332036442034352034CC
:101F200036203236203137203038203232203644C5
:101F300020343520353620363420303220303720DA
:101F400030352030332038382034362033352034B3
:101F500036203032203136203034203033203737AD
:101F600020343620343520323520313520303420AD
:101F70003033203737203536203435203032203189
:101F80003520303420303320373720343620343673
:101F90002030322031352030342030332037372084
:101FA0003536203436203032203135203034203060
:101FB000332037372035362035362030322035353E
:101FC0002030302030302030382034362033352057
:101FD0003032203935203032203030203038203334
:101FE0003620343520303220433520303020353013
:101FF000203038203436203335203032203435201C
:102000003030203530203038203336203435203001
:1020100032203335203030203035203038203436EF
:1020200020343520303220333520303020303520F8
:1020300030382033362034352030322034362030CA
:1020400030203230203038203335203436203235BD
:1020500020353520304120323220373320363320AE
:102060003334203032203435203042203131203694
:102070003320333520343620303220343420304180
:102080002031312036332036332032342030352091
:102090003830203232203646203436203335203056
:1020A0003220303520383020323220364620333648
:1020B000203435203032203935203044203232204F
:1020C000374120363420343320303220323420302F
:1020D000412032322037332036332032332032341D
:1020E0002030412032322037332034332032332025
:1020F00039342030442033322037412036342032E6
:1021000034203934203044203232203741203334D7
:1021100020323420303320303720333220373620FD
:1021200035362030322044352030422033332037BA
:1021300041203435203436203032203030203030C9
:1021400020303020303020303020303020303020EF
:1021500030302030302030302030302030302030CF
:1021600030203030203030203030203030203030BF
:102170002030302030300D0A3030373920303030C8
:102180003020303030332030302030302030300DAF
:102190000A30303743203030303020303030372074
:1021A000304220303120303520303420314220344C
:1021B000312039360D0A303037442030303030206D
:0921C000303030312030330D0ABB
:00000001FF
