:100000004F42505F5241572056310D0A4134203241
:1000100046203330204544203230203134203245D0
:100020000D0A3239303533440D0A384141434434E6
:100030000D0A303032352030303030203030383218
:1000400020334120303020303020303020303020FC
:1000500030302030302030302030302030302030F0
:1000600030203030203030203030203030203030E0
:1000700020303020303020303020303020303020E0
:1000800030302030302030302030302030302030C0
:1000900030203030203030203030203030203030B0
:1000A00020303020303020303020303020303020B0
:1000B0003030203030203030203030203030203090
:1000C0003020303020303020303020303020303080
:1000D0002030302030302030302030302030302080
:1000E0003030203030203030203030203030203060
:1000F0003020303020303020303020303020303050
:10010000203030203030203030203030203030204F
:10011000303020303020303020303020303020302F
:10012000302030302030302030302030302030301F
:10013000203030203030203030203030203030201F
:1001400030302030302030302030302030302030FF
:1001500030203030203030203030203030203030EF
:1001600020303020303020303020303020303020EF
:1001700030302030302030302030302030302030CF
:1001800030203030203030203030203030203030BF
:1001900020303020303020303020303020303020BF
:1001A000303020303020303020303020303020309F
:1001B000302030302030302030302030302030308F
:1001C0002030302030300D0A3030343420303030A0
:1001D0003020303034392030302030302030302062
:1001E000303020303020303020303020303020305F
:1001F000302030302030302030302030302030304F
:10020000203030203030203030203030203030204E
:10021000303020303020303020303020303020302E
:10022000302030302030302030302030302030301E
:10023000203030203030203030203030203030201E
:1002400030302030302030302030302030302030FE
:1002500030203030203030203030203030203030EE
:1002600020303020303020303020303020303020EE
:1002700030302030302030302030302030302030CE
:1002800030203030203030203030203030203030BE
:1002900020303020303020303020303020303020BE
:1002A000303020303020303020303020303020309E
:1002B000300D0A303032362030303030203030349B
:1002C000302030302031452045442030412030411D
:1002D0002031302030332031362030302030302073
:1002E000303020303020303020303020303020305E
:1002F000302030302030302030302030302030304E
:10030000203030203030203030203030203030204D
:10031000303020303020303020303020303020302D
:10032000302030302030302030302030302030301D
:10033000203030203030203030203030203030201D
:1003400030302030302030302030302030302030FD
:1003500030203030203030203030203030203030ED
:1003600020303020303020303020303020303020ED
:1003700030302030302030302030302030302030CD
:10038000300D0A30303437203030303020303043B8
:100390003820303020363420313420333220304180
:1003A0002032322033432031342031392030302084
:1003B000333220313420313420303020303020317D
:1003C0004520433820304620303020303220303035
:1003D000203134203030203332203032204630205B
:1003E0003738203332203030203030203030203049
:1003F0003020363420313420333220304120323224
:100400002033432031342031392030302030302027
:10041000333220313420313420303020303020311C
:1004200045204338203046203030203032203030D4
:1004300020313420303020333220303220463020FA
:1004400037382033322030302030302038342030DC
:1004500030203530203041203139203034203232C4
:1004600020323820304120304620303020303020BB
:10047000323020304620304120303020353020309E
:10048000462033322030352030302030312030309B
:10049000203030203030203043203433204432208C
:1004A0003343203145203030203030203835203063
:1004B0003020303120303120303220303220303086
:1004C000203030203030203143203031203139206D
:1004D0003031203139203030203030203030203061
:1004E000302030302030302030302030302030305C
:1004F0002030302030302030302031382030432040
:100500003030203030203030203134203134203031
:1005100041203030203030203046203046203041DD
:100520002030302030302031342031342030412010
:100530003030203030203031203032203030203008
:1005400035203030203030203332203139203138DE
:1005500020313420303120303220303020464620C7
:1005600030302030302030302030302030302030DB
:1005700030203030203030203031203030203335C2
:1005800020333220303520303520303020303520B7
:100590004646203030203030203030203046203069
:1005A0004120303420303220303020464620303058
:1005B000203030203030203030203030203030209B
:1005C0003030203030203035203030203335203668
:1005D0003420303020303020303020303020303067
:1005E0002030302030302030300D0A303036452079
:1005F0003030303020303032382035312030372024
:100600003631203036203231203037204539203005
:1006100033204331203035203131203034203739F8
:1006200020303620373120303420463920303620F3
:1006300044392030372041392030392036312030BC
:1006400037203239203041204131203041203531AE
:1006500020304320353120304120303120303020CF
:1006600030312030302030312030302030312030D7
:10067000300D0A30303645203030303120303032C5
:1006800038203030203030203030203030203030B2
:1006900020303020303020303020303020303020BA
:1006A000303020303020303020303020303020309A
:1006B000302030302030302030302030302030308A
:1006C000203030203030203030203030203030208A
:1006D000303020303020303020303020303020306A
:1006E000302030302030302030302030302030305A
:1006F0002030302030302030300D0A303036452068
:10070000303030322030303238203030203030201D
:100710003030203030203030203030203030203029
:100720003020303020303020303020303020303019
:100730002030302030302030302030302030302019
:1007400030302030302030302030302030302030F9
:1007500030203030203030203030203030203030E9
:1007600020303020303020303020303020303020E9
:1007700030302030302030302030302030302030C9
:10078000300D0A30303645203030303320303032B2
:100790003820433920303720373120303720313965
:1007A0002030372045392030342044312030342067
:1007B0004239203034203939203035203131203051
:1007C0003520413920303620353120303820343141
:1007D000203039204539203037203239203041202F
:1007E00033392030422041312030432042392030FB
:1007F0004120303120303020303120303020303135
:100800002030302030312030300D0A303036452055
:10081000303030342030303238203030203030200A
:100820003030203030203030203030203030203018
:100830003020303020303020303020303020303008
:100840002030302030302030302030302030302008
:1008500030302030302030302030302030302030E8
:1008600030203030203030203030203030203030D8
:1008700020303020303020303020303020303020D8
:1008800030302030302030302030302030302030B8
:10089000300D0A303036452030303035203030329F
:1008A0003820303020303020303020303020303090
:1008B0002030302030302030302030302030302098
:1008C0003030203030203030203030203030203078
:1008D0003020303020303020303020303020303068
:1008E0002030302030302030302030302030302068
:1008F0003030203030203030203030203030203048
:100900003020303020303020303020303020303037
:100910002030302030302030300D0A303036452045
:1009200030303036203030323820364220303420DB
:1009300036422030342036422030342038422030B5
:1009400034203733203034203833203034203742BD
:1009500020303420383320303420363320303420D7
:100960003542203034203442203034203633203099
:10097000342034422030342034332030342032428A
:1009800020303420343320303420303320303020B5
:10099000303320303020303320303020303320309E
:1009A000300D0A303036452030303037203030328C
:1009B000382030302030302030302030302030307F
:1009C0002030302030302030302030302030302087
:1009D0003030203030203030203030203030203067
:1009E0003020303020303020303020303020303057
:1009F0002030302030302030302030302030302057
:100A00003030203030203030203030203030203036
:100A10003020303020303020303020303020303026
:100A20002030302030302030300D0A303036452034
:100A300030303038203030323820303020303020E4
:100A400030302030302030302030302030302030F6
:100A500030203030203030203030203030203030E6
:100A600020303020303020303020303020303020E6
:100A700030302030302030302030302030302030C6
:100A800030203030203030203030203030203030B6
:100A900020303020303020303020303020303020B6
:100AA0003030203030203030203030203030203096
:100AB000300D0A3030303720303030302030303098
:100AC0003520303820303820314520433220303036
:100AD0000D0A303030382030303030203030304661
:100AE0002032392030302030352030352030302051
:100AF0003035204646203030203030203030203015
:100B0000422030312030312030312038300D0A3051
:100B100030304620303030302030303042203030DD
:100B20002030302030302030302030302030302025
:100B300030302030302030302030302030300D0A3E
:100B400030303132203030303020303030322030D0
:100B5000302030300D0A303031332030303030200A
:100B600030303036203030203030203030203030BF
:100B70002030302030300D0A3030313920303030E4
:100B800030203030313020303320303020333020AE
:100B9000373520443820353920303020303020306F
:100BA0003020303020464520413020304620303043
:100BB0002030302030300D0A3030323320303030A9
:100BC000302030303037203032203238203145204C
:100BD00046412030312030352030320D0A3030325D
:100BE0003820303030302030303037203331203032
:100BF0003020303020334320334320303020303118
:100C00000D0A303032412030303030203030304525
:100C100020303120303020464620333220464620D6
:100C200030352030302030302030302030302043FC
:100C3000382030332030302030300D0A303032420E
:100C400020303030302030303131203030203030E2
:100C500020303020303020303020303020303020F4
:100C600030302030302030302030302030302030D4
:100C7000302030302030302030302030300D0A30FD
:100C8000303245203030303020303030432030306A
:100C900020303020303820303620303120303020A5
:100CA000303020333220303020303120303020308E
:100CB000300D0A3030324620303030302030303283
:100CC000462030302030302030302030302030305E
:100CD0002030302030302030302030302030302074
:100CE0003030203030203030203030203030203054
:100CF0003020303020303020303020303020303044
:100D00002030302030302030302030302030302043
:100D10003030203030203030203030203030203023
:100D20003020303020303020303020303020303013
:100D30002030302030302030302030302030302013
:100D400030302030302030302030302030300D0A2C
:100D500030303338203030303020303032342030B2
:100D600033203030203031203231203036203036C0
:100D700020303620303620303620303620303620B5
:100D80003036203036203036203036203036203095
:100D9000362030362030362030362030362030367F
:100DA0002030362030362030362030362030362085
:100DB0003036203036203036203036203036203065
:100DC000302030302030302030300D0A3030334485
:100DD000203030303020303030352030332030304B
:100DE0002030302045382030330D0A303033442055
:100DF000303030312030303035203030203030202D
:100E000030302030302030300D0A30303344203044
:100E1000303032203030303520303020303020300B
:100E2000302030302030300D0A3030334420303024
:100E300030332030303035203030203030203030EA
:100E40002030302030300D0A303033442030303004
:100E500034203030303520303020303020303020D9
:100E600030302030300D0A303033442030303035CF
:100E700020303030352030302030302030302030BD
:100E8000302030300D0A30303431203030303020D6
:100E90003030313720383120304120303020303070
:100EA00020303020303020303020303020303020A2
:100EB0003030203041203030203030203030203071
:100EC0003020303020303020313120303020303070
:100ED0002030302030302030300D0A303034312096
:100EE0003030303120303031372030302030302039
:100EF0003030203030203030203030203030203042
:100F00003020303020303020303020303020303031
:100F10002030302030302030302030302030302031
:100F200030302030302030302030302030300D0A4A
:100F300030303431203030303220303031372030D2
:100F400030203030203030203030203030203030F1
:100F500020303020303020303020303020303020F1
:100F600030302030302030302030302030302030D1
:100F700030203030203030203030203030203030C1
:100F80002030300D0A3030343620303030302030D0
:100F9000303041203033204338203030203236206A
:100FA0003030203030203346203030203030203078
:100FB000300D0A303034362030303031203030308F
:100FC0004120303320373820303020363820303040
:100FD0002030302030322030312030302030370D7A
:100FE0000A3030343620303030322030303041203A
:100FF0003033203738203030203634203030203025
:10100000302031452030412030302031310D0A3040
:1010100030343620303030332030303041203030E2
:10102000203738203030203530203030203030200C
:1010300030312031462030302030300D0A3030340D
:1010400036203030303420303030412030332037BB
:1010500032203030203638203030203030203032CE
:101060002032302030302030370D0A3030343620F6
:10107000303030352030303041203033203732208E
:10108000303020363420303020303020314520328E
:10109000412030302031310D0A30303436203030AC
:1010A0003036203030304120303020373220303060
:1010B000203445203030203030203030203345205F
:1010C00030302030300D0A30303436203030303778
:1010D0002030303041203030203732203030203541
:1010E0003020303020303020303120334620303036
:1010F0002030300D0A303034362030303038203057
:1011000030304120303320304420303020363820F9
:101110003030203030203032203430203030203019
:10112000370D0A303034362030303039203030300E
:1011300041203033203044203030203634203030CD
:101140002030302031452034412030302031310DE5
:101150000A303034362030303041203030304120B9
:1011600030302030442030302034452030302030A2
:10117000302030302035452030302030300D0A30DE
:101180003034362030303042203030304120303062
:101190002030442030302035302030302030302096
:1011A00030312035462030302030300D0A30303498
:1011B000362030303043203030304120303320373B
:1011C000392030302033442030302030302030314E
:1011D0002036302030302030300D0A303034362088
:1011E000303030442030303041203033203733200D
:1011F0003030203344203030203030203031203621
:10120000312030302030300D0A303034362030304C
:1012100030452030303041203033203738203030D6
:1012200020334420303020303020303120363220FE
:1012300030302030300D0A303034362030303046F7
:1012400020303030412030332037322030302033CE
:1012500044203030203030203031203633203030C0
:101260002030300D0A3030343620303031302030EC
:101270003030412030332043392030302030382086
:101280003030203030203032203843203030203091
:10129000370D0A30303436203030313120303030A4
:1012A0004120303320433920303020363420303054
:1012B0002030302031462039342030302030310D7C
:1012C0000A30303436203030313220303030412056
:1012D000303320313620303020324520303020303D
:1012E000302030342036412030302030300D0A306C
:1012F00030343620303031332030303041203033FC
:10130000203136203030203438203030203030202A
:1013100031332036422030302030300D0A30303426
:1013200036203030313420303030412030332031DD
:1013300038203030203245203030203030203034DA
:101340002036382030302030300D0A30303436200E
:1013500030303135203030304120303320313820AA
:1013600030302034382030302030302031332036B7
:10137000392030302030300D0A30303436203030D3
:101380003136203030304120303320313820303079
:10139000203634203030203030203242203739207F
:1013A00030302030300D0A30303436203030313794
:1013B0002030303041203033203141203030203453
:1013C0003820303020303020313320363720303054
:1013D0002030300D0A303034362030303138203073
:1013E0003030412030332043392030302036462001
:1013F0003030203030203036203936203030203028
:10140000460D0A303034362030303139203030301B
:1014100041203033203141203030203245203030DF
:101420002030302030342036362030302030300D1F
:101430000A303034362030303141203030304120D5
:1014400030332031412030302036342030302030CD
:10145000302032422037382030302030300D0A30F2
:10146000303436203030314220303030412030337B
:1014700020313820303020363420303020303020B9
:1014800032302037442030302030300D0A303034B4
:10149000362030303143203030304120303320315D
:1014A000412030302036342030302030302032306F
:1014B0002037452030302030300D0A30303436208F
:1014C000303031442030303041203033203136202C
:1014D0003030203634203030203030203230203749
:1014E000462030302030300D0A3030343620303055
:1014F00031452030303041203030203138203030FC
:10150000203431203030203030203031203832202B
:1015100030302030300D0A30303436203030314613
:1015200020303030412030302031412030302034E4
:1015300031203030203030203031203833203030EE
:101540002030300D0A303034362030303230203008
:1015500030304120303020313620303020343120BE
:1015600030302030302030312038342030302030BE
:10157000300D0A30303436203030323120303030C7
:101580004120303120313820303020343720303085
:101590002030302034432038372030302030300D98
:1015A0000A30303436203030323220303030412072
:1015B000303120314120303020343720303020305D
:1015C000302034432038382030302030300D0A307D
:1015D000303436203030323320303030412030311A
:1015E0002031362030302034372030302030302049
:1015F00034432038392030302030300D0A30303438
:1016000036203030323420303030412030332043E7
:1016100041203030203038203030203030203032FF
:101620002041362030302030370D0A30303436201B
:1016300030303235203030304120303320434120AB
:1016400030302036342030302030302031462041B8
:10165000452030302030310D0A30303436203030E3
:10166000323620303030412030332043412030307A
:101670002036462030302030302030362042302096
:1016800030302030460D0A3030343620303032379A
:101690002030303041203030203030203030203089
:1016A000302030302030302030302030302030308A
:1016B0002030300D0A303034382030303030203097
:1016C0003035392030422030302030302030312049
:1016D0003030203034203041203041203030203034
:1016E0003820324420303020303020303420333124
:1016F0002033372036352030452030302031392016
:101700003039203030203030203030203030203020
:101710003020304320303020303020303020303006
:101720002030452030302030302030302030302004
:1017300030302030302030442030302030392030DC
:1017400030203030203030203030203030203043D6
:1017500020303020303020303020303020304520D4
:1017600030302030302030302030302030302030C9
:10177000322031392038352030392036392039347B
:101780002043362036452030302032302032302081
:10179000323020323020303020323820323820327F
:1017A0003820323820303020303020303320303074
:1017B000203835203030203030203030203030207C
:1017C00030302030302030302030302030300D0AA2
:1017D000303034442030303030203030303220301F
:1017E000302030300D0A3030344520303030302059
:1017F00030303043203834203035203033203041F1
:101800002031392030312031382030302038432009
:1018100030302030302030300D0A30303446203027
:1018200030303020303030342030302030302030F4
:10183000302030300D0A3030344620303030312006
:1018400030303034203030203030203030203030D4
:101850000D0A3030344620303030322030303034D1
:101860002030302030302030302030300D0A303001
:10187000353020303030302030303045203033208B
:101880003030203645203535203043204335203058
:101890003020343620314520303120303020303077
:1018A0002030302030330D0A3030353120303030A8
:1018B0003020303031322030302030302030302075
:1018C0003030203030203030203030203030203068
:1018D0003020303020303020303020303020303058
:1018E0002030302030302030302030300D0A303081
:1018F000353120303030312030303132203030201E
:101900003030203030203030203030203030203027
:101910003020303020303020303020303020303017
:101920002030302030302030302030302030302017
:1019300030300D0A30303534203030303020303007
:1019400030342030302030302030302030300D0A1C
:101950003030354420303030302030303145203088
:10196000462039462030352030302030302030308D
:101970002030302046362030392046462030462060
:10198000464620304620303020363420303020315A
:101990003420303420303020303020324320303179
:1019A000203243203031203030203134203030207C
:1019B00031342030302030300D0A30303633203092
:1019C0003030302030303043203030203030203044
:1019D0003020303020303020303020303020303057
:1019E0002030302030302030302030300D0A303080
:1019F0003634203030303020303034352038332009
:101A00003735203031203031203030203030203018
:101A100041203838203030203143203244203039C2
:101A200020304120464620303920313720323020C6
:101A300032332033312030302031302032442030D6
:101A4000342030342039462030352031462032468B
:101A500020304320303820323020304620304120A2
:101A600030302035302030462033322030352030A1
:101A700030203031203030203030203030203043A2
:101A8000203433204432203343203145203030206D
:101A9000303620303020363420313420303220307F
:101AA0003020303020413320333120413620324441
:101AB000203030203235203030203030203134207A
:101AC00046412030302030412038370D0A30303642
:101AD000352030303030203030323020303020303F
:101AE0003020303020303020303020303020303046
:101AF0002030302030302030302030302030302046
:101B00003030203030203030203030203030203025
:101B10003020303020303020303020303020303015
:101B20002030302030302030302030302030302015
:101B300030302030302030302030300D0A30303618
:101B400038203030303020303030422030312030BA
:101B500030203530203041203139203034203232AD
:101B60002032382030412030462030360D0A3030C7
:101B70003643203030303020303034422039442059
:101B800030302030302030312030312030302030A3
:101B90003020303420303020303020303020303091
:101BA0002030302030302030302030302030302095
:101BB0003030203030203230203030203030203073
:101BC0003020303020323020303020303020303063
:101BD000203030203030203030203036203030205F
:101BE0003031203030203030203030203030203044
:101BF0003020333020303020303020303020303032
:101C00002033302030302030302030302030302031
:101C100030302030332030432036342030312030F3
:101C20003020303020303020303020303020343000
:101C30002030302030302030302030302034302000
:101C400030302030302030302030302030302031E3
:101C5000342030302038352030302030300D0A30FC
:101C6000303644203030303020303030392034327B
:101C700020303020303520303020303020303020BF
:101C800030302030302030330D0A303036462030AE
:101C9000303030203030314520303020303020326C
:101CA0003820303120323020323020303420303271
:101CB0002030302046462030302030302030302058
:101CC0003030203030203030203030203030203064
:101CD0003520303020333520363420303020323338
:101CE000203030203031203041203030203332203D
:101CF00033430D0A3030364620303030312030301A
:101D0000314520303020303020303020303020300D
:101D10003020303020303020303020303020303013
:101D20002030302030302030302030302030302013
:101D300030302030302030302030302030302030F3
:101D400030203030203030203030203030203031E2
:101D50002030302030302030302030300D0A30300C
:101D6000364620303030322030303145203030207F
:101D700030302032382030312034302034302030A0
:101D800030203030203030203030203030203030A3
:101D900020303020303020303020303020303020A3
:101DA0003030203030203030203030203030203083
:101DB000302032442030302030312030302030305C
:101DC0002030302030300D0A303037302030303085
:101DD000302030303035203030203030203030204E
:101DE00030302030300D0A30303730203030303154
:101DF000203030303520303020303020303020302E
:101E0000302030300D0A3030373120303030302043
:101E1000303030332030352030302030380D0A302B
:101E200030373320303030302030303134203036CD
:101E300020303020303020464620464620303020AA
:101E4000303020464620464620323820303020337D
:101E500043203030203032203345203032203030A3
:101E60002038362030302032330D0A3030373420DD
:101E70003030303020303046462030302030302076
:101E800030302030302030302030302030302030A2
:101E90003020303020303020303020303020303092
:101EA0002030302030302030302030302030302092
:101EB0003030203030203030203030203030203072
:101EC0003020303020303020303020303020303062
:101ED0002030302030302030302030302030302062
:101EE0003030203030203030203030203030203042
:101EF0003020303020303020303020303020303032
:101F00002030302030302030302030302030302031
:101F10003030203030203030203030203030203011
:101F20003020303020303020303020303020303001
:101F30002030302030302030302030302030302001
:101F400030302030302030302030302030302030E1
:101F500030203030203030203030203030203030D1
:101F600020303020303020303020303020303020D1
:101F700030302030302030302030302030302030B1
:101F800030203030203030203030203030203030A1
:101F900020303020303020303020303020303020A1
:101FA0003030203030203030203030203030203081
:101FB0003020303020303020303020303020303071
:101FC0002030302030302030302030302030302071
:101FD0003030203030203030203030203030203051
:101FE0003020303020303020303020303020303041
:101FF0002030302030302030302030302030302041
:102000003030203030203030203030203030203020
:102010003020303020303020303020303020303010
:102020002030302030302030302030302030302010
:1020300030302030302030302030302030302030F0
:1020400030203030203030203030203030203030E0
:1020500020303020303020303020303020303020E0
:1020600030302030302030302030302030302030C0
:1020700030203030203030203030203030203030B0
:1020800020303020303020303020303020303020B0
:102090003030203030203030203030203030203090
:1020A0003020303020303020303020303020303080
:1020B0002030302030302030302030302030302080
:1020C0003030203030203030203030203030203060
:1020D0003020303020303020303020303020303050
:1020E0002030302030302030302030302030302050
:1020F0003030203030203030203030203030203030
:10210000302030302030302030302030302030301F
:10211000203030203030203030203030203030201F
:1021200030302030302030302030302030302030FF
:1021300030203030203030203030203030203030EF
:1021400020303020303020303020303020303020EF
:1021500030302030302030302030302030302030CF
:1021600030203030203030203030203030203030BF
:102170002030302030300D0A3030373920303030C8
:102180003020303030332030302030302030300DAF
:102190000A30303743203030303020303030372074
:1021A0003042203031203037203038203830203352
:1021B000452038320D0A303037442030303030205E
:0921C000303030312030330D0ABB
:00000001FF
