:100000004F42505F5241572056310D0A4134203241
:1000100046203330204144203230203134203244D5
:100020000D0A4337344131430D0A363931414338E3
:100030000D0A303032352030303030203030383218
:100040002030302030302030302030302030302010
:1000500030302030302030302030302030302030F0
:1000600030203030203030203030203030203030E0
:1000700020303020303020303020303020303020E0
:1000800030302030302030302030302030302030C0
:1000900030203030203030203030203030203030B0
:1000A00020303020303020303020303020303020B0
:1000B0003030203030203030203030203030203090
:1000C0003020303020303020303020303020303080
:1000D0002030302030302030302030302030302080
:1000E0003030203030203030203030203030203060
:1000F0003020303020303020303020303020303050
:10010000203030203030203030203030203030204F
:10011000303020303020303020303020303020302F
:10012000302030302030302030302030302030301F
:10013000203030203030203030203030203030201F
:1001400030302030302030302030302030302030FF
:1001500030203030203030203030203030203030EF
:1001600020303020303020303020303020303020EF
:1001700030302030302030302030302030302030CF
:1001800030203030203030203030203030203030BF
:1001900020303020303020303020303020303020BF
:1001A000303020303020303020303020303020309F
:1001B000302030302030302030302030302030308F
:1001C0002030302030300D0A3030343420303030A0
:1001D0003020303034392030302030302030302062
:1001E000303020303020303020303020303020305F
:1001F000302030302030302030302030302030304F
:10020000203030203030203030203030203030204E
:10021000303020303020303020303020303020302E
:10022000302030302030302030302030302030301E
:10023000203030203030203030203030203030201E
:1002400030302030302030302030302030302030FE
:1002500030203030203030203030203030203030EE
:1002600020303020303020303020303020303020EE
:1002700030302030302030302030302030302030CE
:1002800030203030203030203030203030203030BE
:1002900020303020303020303020303020303020BE
:1002A000303020303020303020303020303020309E
:1002B000300D0A303032362030303030203030349B
:1002C000302030302031452041442030412030362C
:1002D000203130203031203141203030203030206A
:1002E000303020303020303020303020303020305E
:1002F000302030302030302030302030302030304E
:10030000203030203030203030203030203030204D
:10031000303020303020303020303020303020302D
:10032000302030302030302030302030302030301D
:10033000203030203030203030203030203030201D
:1003400030302030302030302030302030302030FD
:1003500030203030203030203030203030203030ED
:1003600020303020303020303020303020303020ED
:1003700030302030302030302030302030302030CD
:10038000300D0A30303437203030303020303043B8
:100390003820303020363420313420333220304180
:1003A0002032322033432031342031392030302084
:1003B000333220313420313420303020303020317D
:1003C0004520334320304620303020303220303238
:1003D000203134203030203332203032204630205B
:1003E0003738203332203030203030203030203049
:1003F0003020363420313420333220304120323224
:100400002033432031342031392030302030302027
:10041000333220313420313420303020303020311C
:1004200045203343203046203030203032203032D7
:1004300020313420303020333220303220463020FA
:1004400037382033322030302030302038302030E0
:1004500030203530203030203139203033203232D6
:1004600020323820303020304320303020303020CF
:100470003145203041203043203030203436203088
:100480004120433820303520303020303120303189
:100490002030322030302030432034332046412079
:1004A0003343203046203030203030203831203265
:1004B0003020303120303120303220303220303086
:1004C000203030203030203143203031203139206D
:1004D0003031203139203030203030203030203061
:1004E000302030302030302030302030302030305C
:1004F0002030302030302030302030462030432033
:100500003030203030203030203134203134203031
:1005100043203030203030203046203046203035E7
:10052000203030203030203134203134203043200E
:10053000303020303020303020303020303020300B
:1005400030203030203030203030203030203030FB
:1005500020303020303020303020303020303020FB
:1005600030302030302030302030302030302030DB
:1005700030203030203030203030203030203030CB
:1005800020303020303020303020303020303020CB
:1005900030302030302030302030302030302030AB
:1005A000302030302030302030302030302030309B
:1005B000203030203030203030203030203030209B
:1005C000303020303020303020303020303020307B
:1005D000302030302030302030302030302030306B
:1005E0002030302030302030300D0A303036452079
:1005F000303030302030303238203839203033201D
:100600003531203033203839203035204239203000
:1006100034204531203035203931203036203839EA
:1006200020303920453920303820413120304120D8
:1006300038312030422035312030392036312030D9
:10064000392035392030422034392030412045319D
:1006500020303920303120303720303120303020E8
:1006600030312030302030312030302030312030D7
:10067000300D0A30303645203030303120303032C5
:1006800038203030203030203030203030203030B2
:1006900020303020303020303020303020303020BA
:1006A000303020303020303020303020303020309A
:1006B000302030302030302030302030302030308A
:1006C000203030203030203030203030203030208A
:1006D000303020303020303020303020303020306A
:1006E000302030302030302030302030302030305A
:1006F0002030302030302030300D0A303036452068
:10070000303030322030303238203030203030201D
:100710003030203030203030203030203030203029
:100720003020303020303020303020303020303019
:100730002030302030302030302030302030302019
:1007400030302030302030302030302030302030F9
:1007500030203030203030203030203030203030E9
:1007600020303020303020303020303020303020E9
:1007700030302030302030302030302030302030C9
:10078000300D0A30303645203030303320303032B2
:10079000382044312030332033392030342033396D
:1007A0002030352037392030352046312030352073
:1007B0003431203037204539203039203231203053
:1007C0003920313120304220323120304220343142
:1007D000203039203539203039203439203042203A
:1007E0003531203042203531203041203331203026
:1007F000382030312030302030312030302030313E
:100800002030302030312030300D0A303036452055
:10081000303030342030303238203030203030200A
:100820003030203030203030203030203030203018
:100830003020303020303020303020303020303008
:100840002030302030302030302030302030302008
:1008500030302030302030302030302030302030E8
:1008600030203030203030203030203030203030D8
:1008700020303020303020303020303020303020D8
:1008800030302030302030302030302030302030B8
:10089000300D0A303036452030303035203030329F
:1008A0003820303020303020303020303020303090
:1008B0002030302030302030302030302030302098
:1008C0003030203030203030203030203030203078
:1008D0003020303020303020303020303020303068
:1008E0002030302030302030302030302030302068
:1008F0003030203030203030203030203030203048
:100900003020303020303020303020303020303037
:100910002030302030302030300D0A303036452045
:1009200030303036203030323820364220303420DB
:1009300036422030342035332030342036332030D6
:1009400034203533203034203433203034203242C8
:1009500020303420324220303420304220303420C5
:1009600030332030342031422030342032332030B4
:100970003420304220303420313320303420314292
:1009800020303420334220303420303320303020A7
:10099000303320303020303320303020303320309E
:1009A000300D0A303036452030303037203030328C
:1009B000382030302030302030302030302030307F
:1009C0002030302030302030302030302030302087
:1009D0003030203030203030203030203030203067
:1009E0003020303020303020303020303020303057
:1009F0002030302030302030302030302030302057
:100A00003030203030203030203030203030203036
:100A10003020303020303020303020303020303026
:100A20002030302030302030300D0A303036452034
:100A300030303038203030323820303020303020E4
:100A400030302030302030302030302030302030F6
:100A500030203030203030203030203030203030E6
:100A600020303020303020303020303020303020E6
:100A700030302030302030302030302030302030C6
:100A800030203030203030203030203030203030B6
:100A900020303020303020303020303020303020B6
:100AA0003030203030203030203030203030203096
:100AB000300D0A3030303720303030302030303098
:100AC0003520323820303820314520433220303034
:100AD0000D0A303030382030303030203030304661
:100AE0002032392030302030412030352030302045
:100AF0003035203030203030203030203030203041
:100B0000422030312030312030312038300D0A3051
:100B100030304620303030302030303042203030DD
:100B20002030302030302030302030302030302025
:100B300030302030302030302030302030300D0A3E
:100B400030303132203030303020303030322030D0
:100B5000302030300D0A303031332030303030200A
:100B600030303036203030203030203030203030BF
:100B70002030302030300D0A3030313920303030E4
:100B800030203030313020303320303020333020AE
:100B9000373520443820353920303020303020306F
:100BA0003020303020464520413020304620303043
:100BB0002030302030300D0A3030323820303030A4
:100BC000302030303037203331203030203030206A
:100BD00033432033432030302030310D0A3030325F
:100BE000412030303030203030304520303120301E
:100BF00030204646203244204646203035203030D2
:100C00002030302030302030302043382030332026
:100C100030302030300D0A30303242203030303029
:100C20002030303131203030203030203030203012
:100C30003020303020303020303020303020303004
:100C40002030302030302030302030302030302004
:100C500030302030302030300D0A303032452030F6
:100C600030303020303030432030302030302030B1
:100C700038203036203031203030203030203530B0
:100C80002030302030312030302030300D0A3030EC
:100C90003246203030303020303032462030302064
:100CA0003030203030203030203030203030203094
:100CB0003020303020303020303020303020303084
:100CC0002030302030302030302030302030302084
:100CD0003030203030203030203030203030203064
:100CE0003020303020303020303020303020303054
:100CF0002030302030302030302030302030302054
:100D00003030203030203030203030203030203033
:100D10003020303020303020303020303020303023
:100D20002030302030302030300D0A303033382041
:100D300030303030203030323420303220303020EB
:100D400030312032312030362030362030362030DD
:100D500036203036203036203036203036203036BF
:100D600020303620303620303620303620303620C5
:100D700030362030362030362030362030362030A5
:100D8000362030362030362030362030362030368F
:100D900020303620303620303620303020303020A1
:100DA00030302030300D0A30303344203030303095
:100DB0002030303035203033203030203030204566
:100DC000382030330D0A3030334420303030312079
:100DD000303030352030302030302030302030304E
:100DE0002030300D0A303033442030303032203063
:100DF000303035203030203030203030203030203E
:100E000030300D0A30303344203030303320303031
:100E1000303520303020303020303020303020301D
:100E2000300D0A3030334420303030342030303010
:100E300035203030203030203030203030203030FD
:100E40000D0A3030334420303030352030303035EA
:100E50002030302030302030302030302030300D05
:100E60000A303034312030303030203030313720CB
:100E700038312030462030302030302030302030A3
:100E800030203030203030203030203030203041A1
:100E900020303020303020303020303020303020B2
:100EA0003030203131203030203030203030203090
:100EB000302030300D0A30303431203030303120A5
:100EC000303031372030302030302030302030305A
:100ED0002030302030302030302030302030302072
:100EE0003030203030203030203030203030203052
:100EF0003020303020303020303020303020303042
:100F00002030302030302030300D0A303034312065
:100F10003030303220303031372030302030302007
:100F20003030203030203030203030203030203011
:100F30003020303020303020303020303020303001
:100F40002030302030302030302030302030302001
:100F500030302030302030302030302030300D0A1A
:100F60003030343620303030302030303041203096
:100F7000332043382030302032362030302030309B
:100F80002033462030302030302030300D0A3030D1
:100F90003436203030303120303030412030332072
:100FA0003738203030203638203030203030203074
:100FB000322030312030302030370D0A3030343696
:100FC000203030303220303030412030332037383C
:100FD0002030302036342030302030302031452051
:100FE00030412030302031310D0A3030343620305D
:100FF000303033203030304120303020373820300E
:101000003020353020303020303020303120314613
:101010002030302030300D0A30303436203030303F
:1010200034203030304120303320373220303020EF
:1010300036382030302030302030322032302030EE
:10104000302030370D0A3030343620303030352003
:1010500030303041203033203732203030203634A9
:1010600020303020303020314520324120303020B7
:1010700031310D0A303034362030303036203030C7
:10108000304120303020373220303020344520307D
:101090003020303020303020334520303020303088
:1010A0000D0A303034362030303037203030304187
:1010B0002030302037322030302035302030302082
:1010C00030302030312033462030302030300D0A8F
:1010D000303034362030303038203030304120301D
:1010E000332030442030302036382030302030302B
:1010F0002030322034302030302030370D0A30306C
:1011000034362030303039203030304120303320F8
:101110003044203030203634203030203030203100
:10112000452034412030302031310D0A3030343602
:1011300020303030412030303041203030203044B9
:1011400020303020344520303020303020303020E6
:1011500035452030302030300D0A303034362030E4
:101160003030422030303041203030203044203088
:10117000302035302030302030302030312035469E
:101180002030302030300D0A3030343620303030CE
:101190004320303030412030332037392030302068
:1011A0003344203030203030203031203630203071
:1011B000302030300D0A303034362030303044208A
:1011C000303030412030332037332030302033442A
:1011D0002030302030302030312036312030302067
:1011E00030300D0A30303436203030304520303049
:1011F0003041203033203738203030203344203005
:101200003020303020303120363220303020303025
:101210000D0A303034362030303046203030304106
:1012200020303320373220303020334420303020FB
:1012300030302030312036332030302030300D0A2D
:1012400030303436203030313020303030412030B2
:1012500030203030203030203030203030203030DE
:101260002030302030302030302030300D0A303007
:101270003436203030313120303030412030302091
:1012800030302030302030302030302030302030AE
:10129000302030302030302030300D0A30303436BD
:1012A0002030303132203030304120303320313660
:1012B0002030302032452030302030302030342073
:1012C00036412030302030300D0A30303436203076
:1012D000303133203030304120303320313620302F
:1012E0003020343820303020303020313320364226
:1012F0002030302030300D0A30303436203030315C
:10130000342030303041203033203138203030200C
:1013100032452030302030302030342036382030F4
:10132000302030300D0A3030343620303031352026
:1013300030303041203033203138203030203438C4
:1013400020303020303020313320363920303020EA
:1013500030300D0A303034362030303136203030E5
:1013600030412030332031382030302036342030A6
:101370003020303020324220373920303020303099
:101380000D0A3030343620303031372030303041A3
:10139000203033203141203030203438203030208C
:1013A00030302031332036372030302030300D0AB5
:1013B0003030343620303031382030303041203039
:1013C000302030302030302030302030302030306D
:1013D0002030302030302030302030300D0A303096
:1013E0003436203030313920303030412030332015
:1013F0003141203030203245203030203030203014
:10140000342036362030302030300D0A303034363B
:1014100020303031412030303041203033203141D4
:1014200020303020363420303020303020324220FE
:1014300037382030302030300D0A3030343620300C
:1014400030314220303030412030332031382030AC
:1014500030203634203030203030203230203744B5
:101460002030302030300D0A3030343620303031EA
:101470004320303030412030332031412030302083
:101480003634203030203030203230203745203084
:10149000302030300D0A30303436203030314420A6
:1014A0003030304120303320313620303020363457
:1014B000203030203030203230203746203030206D
:1014C00030300D0A30303436203030314520303065
:1014D000304120303020313820303020343120303D
:1014E0003020303020303120383220303020303041
:1014F0000D0A303034362030303146203030304123
:101500002030302031412030302034312030302024
:1015100030302030312038332030302030300D0A48
:1015200030303436203030323020303030412030CE
:1015300030203136203030203431203030203030EF
:101540002030312038342030302030300D0A303017
:1015500034362030303231203030304120303120AC
:1015600031382030302034372030302030302034B3
:10157000432038372030302030300D0A30303436B8
:101580002030303232203030304120303120314173
:101590002030302034372030302030302034432089
:1015A00038382030302030300D0A3030343620309A
:1015B000303233203030304120303120313620304D
:1015C0003020343720303020303020344320383938
:1015D0002030302030300D0A303034362030303278
:1015E0003420303030412030302030302030302036
:1015F000303020303020303020303020303020303B
:10160000302030300D0A3030343620303032352042
:1016100030303041203030203030203030203030F9
:10162000203030203030203030203030203030201A
:1016300030300D0A30303436203030323620303001
:1016400030412030302030302030302030302030D9
:1016500030203030203030203030203030203030DA
:101660000D0A3030343620303032372030303041BF
:1016700020303020303020303020303020303020CA
:1016800030302030302030302030302030300D0AE3
:101690003030343820303030302030303539203060
:1016A0004220303020303020303120303020303473
:1016B000203041203041203030203038203244204A
:1016C0003030203030203034203331203337203652
:1016D000352030452030302031392030392030302D
:1016E0002030302030302030302030302030412049
:1016F0003030203030203030203030203043203027
:101700003020303020303020303020303020303029
:10171000203044203030203039203030203030200C
:1017200030302030302030302030432030302030F6
:1017300030203030203030203043203030203030E6
:1017400020303020303020303020303620324420DD
:10175000353220303920363920393420433620368E
:1017600045203030203230203230203230203230AC
:1017700020303020323820323820323820323820A1
:10178000303020303020303620303020383120309A
:101790003020303020303020303020303020303099
:1017A0002030302030302030300D0A3030344420AA
:1017B0003030303020303030322030302030300D7A
:1017C0000A30303445203030303020303030432043
:1017D000383420303520303320304120313920302A
:1017E0003120313820303020384320303020303024
:1017F0002030300D0A303034462030303030203048
:101800003030342030302030302030302030300D37
:101810000A303034462030303031203030303420FF
:1018200030302030302030302030300D0A3030342D
:1018300046203030303220303030342030302030CC
:10184000302030302030300D0A303035302030300C
:101850003030203030304520303320303020364595
:101860002035352030432043352030302034362099
:1018700031452030312030302030302030302030A1
:10188000330D0A30303531203030303020303031B7
:101890003220303020303020303020303020303096
:1018A0002030302030302030302030302030302098
:1018B0003030203030203030203030203030203078
:1018C000302030302030300D0A303035312030308B
:1018D0003031203030313220303020303020303044
:1018E0002030302030302030302030302030302058
:1018F0003030203030203030203030203030203038
:10190000302030302030302030302030300D0A3060
:1019100030353420303030302030303034203030EA
:101920002030302030302030300D0A303035442027
:10193000303030302030303145203046203946209C
:1019400030352030302030302030302030302046CC
:101950003620303920464620304620464620304644
:1019600020303020363420303020313420303420C4
:10197000303020303020324320303120324320308C
:10198000312030302031342030302031342030309C
:101990002030300D0A3030363320303030302030B7
:1019A0003030432030302030302030302030302074
:1019B0003030203030203030203030203030203077
:1019C000302030302030300D0A3030363420303086
:1019D0003030203030343520383320373520303126
:1019E0002030332030302030302030412038382033
:1019F00030302031432032442030392030412046DD
:101A000046203039203137203230203233203331F4
:101A10002030302031302032442030342030342007
:101A200039462030352031462032462030432030A0
:101A300038203145203041203043203030203436AA
:101A400020304120433820303520303020303120C4
:101A500030312030322030302030432034332046A3
:101A60004120334320304620303020303620303083
:101A70002046462031342030342030302030302091
:101A80004133203331204136203244203030203061
:101A90003020303020303020313420393620303082
:101AA0002030412038370D0A303036352030303084
:101AB0003020303032302030302030302030302074
:101AC0003030203030203030203030203030203066
:101AD0003020303020303020303020303020303056
:101AE0002030302030302030302030302030302056
:101AF0003030203030203030203030203030203036
:101B00003020303020303020303020303020303025
:101B10002030302030300D0A303036382030303030
:101B200030203030304220303120303020353020ED
:101B300030302031392030332032322032382030DA
:101B4000302030432030330D0A30303643203030DF
:101B50003030203030344220394420303020303092
:101B600020303120303120303020303020303420CF
:101B700030302030302030302030302030302030B5
:101B800030203030203030203030203030203030A5
:101B9000203138203030203030203030203030209C
:101BA000313820303020303020303020303020307C
:101BB000302030302030362030302030312030306E
:101BC0002030302030302030302030302032302073
:101BD0003030203030203030203030203230203053
:101BE0003020303020303020303020303020303342
:101BF0002030432036342030312030302030302027
:101C00003030203030203030203330203030203021
:101C10003020303020303020333020303020303011
:101C2000203030203030203030203134203030200F
:101C300038352030302030300D0A303036442030F6
:101C400030303020303030392034322030302030C5
:101C500035203030203030203030203030203030CF
:101C60002030330D0A3030364620303030302030CE
:101C70003031452030302030302033432035302083
:101C80003230203230203034203032203030204684
:101C9000462030302030302030302030302030307E
:101CA000203030203030203030203244203030207E
:101CB000333520363420303020423420303020304C
:101CC000312030302030302030302030300D0A309C
:101CD0003036462030303031203030314520303001
:101CE0002030302030302030302030302030302054
:101CF0003030203030203030203030203030203034
:101D00003020303020303020303020303020303023
:101D10002030302030302030302030302030302023
:101D200030302042382030302030312030302030E8
:101D3000302030302030300D0A3030364620303000
:101D400030322030303145203030203030203343A5
:101D500020333720343020333020303020303020D2
:101D600030302030302030302030302030302030C3
:101D700030203030203030203030203030203030B3
:101D8000203030203030203030203030204235209C
:101D90003030203031203030203030203030203092
:101DA000300D0A3030373020303030302030303095
:101DB000352030302030302030302030302030306E
:101DC0000D0A30303730203030303120303030356F
:101DD0002030302030302030302030302030300D76
:101DE0000A3030373120303030302030303033203E
:101DF00030352030302030380D0A30303733203045
:101E00003030302030303134203037203030203006
:101E1000302046462046462030302030302046468E
:101E200020464620323820303020334320303020C6
:101E300030322033452030322030302038362030C8
:101E4000302032330D0A30303734203030303020FB
:101E50003030464620303020303020303020303096
:101E600020303020303020303020303020303020D2
:101E700030302030302030302030302030302030B2
:101E800030203030203030203030203030203030A2
:101E900020303020303020303020303020303020A2
:101EA0003030203030203030203030203030203082
:101EB0003020303020303020303020303020303072
:101EC0002030302030302030302030302030302072
:101ED0003030203030203030203030203030203052
:101EE0003020303020303020303020303020303042
:101EF0002030302030302030302030302030302042
:101F00003030203030203030203030203030203021
:101F10003020303020303020303020303020303011
:101F20002030302030302030302030302030302011
:101F300030302030302030302030302030302030F1
:101F400030203030203030203030203030203030E1
:101F500020303020303020303020303020303020E1
:101F600030302030302030302030302030302030C1
:101F700030203030203030203030203030203030B1
:101F800020303020303020303020303020303020B1
:101F90003030203030203030203030203030203091
:101FA0003020303020303020303020303020303081
:101FB0002030302030302030302030302030302081
:101FC0003030203030203030203030203030203061
:101FD0003020303020303020303020303020303051
:101FE0002030302030302030302030302030302051
:101FF0003030203030203030203030203030203031
:102000003020303020303020303020303020303020
:102010002030302030302030302030302030302020
:102020003030203030203030203030203030203000
:1020300030203030203030203030203030203030F0
:1020400020303020303020303020303020303020F0
:1020500030302030302030302030302030302030D0
:1020600030203030203030203030203030203030C0
:1020700020303020303020303020303020303020C0
:1020800030302030302030302030302030302030A0
:102090003020303020303020303020303020303090
:1020A0002030302030302030302030302030302090
:1020B0003030203030203030203030203030203070
:1020C0003020303020303020303020303020303060
:1020D0002030302030302030302030302030302060
:1020E0003030203030203030203030203030203040
:1020F0003020303020303020303020303020303030
:10210000203030203030203030203030203030202F
:10211000303020303020303020303020303020300F
:1021200030203030203030203030203030203030FF
:1021300020303020303020303020303020303020FF
:1021400030302030302030302030302030302030DF
:10215000300D0A30303739203030303020303030D8
:10216000332030302030302030300D0A30303743CB
:102170002030303030203030303720304220303185
:102180002030372030382038302033452038320D89
:102190000A30303744203030303020303030312079
:0421A00030330D0AC1
:00000001FF
