:2000000002219EEF600EC2AF905028E04404F0E054EF8008C2AF905028E054FBF0D2AF224B
:2000200022000002154C7596FC759580759423759318E4F59DF59CF59B759A01759203E5C8
:200040009120E0FBE4F592759201E59130E1FBE4F59275B18075B100905078F0A3F0747821
:200060002DF583758202E0FEA3E0FBA37596FC7595D0759400759370E0F59DA3E0F59CA358
:20008000E0F59BA3E0F59A759203E59120E0FBE4F592A3759374E0F59DA3E0F59CA3E0F5DB
:2000A0009BA3E0F59A759203E59120E0FBE4F592A3759378E0F59DA3E0F59CA3E0F59BA34E
:2000C000E0F59A759203E59120E0FBE4F592A375937CE0F59DA3E0F59CA3E0F59BA3E0F593
:2000E0009A759203E59120E0FBE4F592A3759320E0F59DA3E0F59CA3E0F59BA3E0F59A7595
:200100009203E59120E0FBE4F592EE30E1397595A075948075932CA3E0F59DA3E0F59CA303
:20012000E0F59BA3E0F59A759203E59120E0FBE4F592759328A3E0F59DA3E0F59CA3E0F586
:200140009BA3E0F59A80127595A0759482759394E4F59DF59CF59B8B9A759203E59120E053
:20016000FBE4F592759580759423759318759201E59130E1FBE4F592E5A130E23CE4F59D04
:20018000F59CF59BF59A759203E59120E0FBE4F592759422759308759A01759203E59120DE
:2001A000E0FBE4F592F59A759203E59120E0FBE4F592905008E0A3F02230E1B175942475A3
:2001C000930C759201E59130E1FBE4F592E5A230E4F07595A07594827593907401F59A75BA
:2001E0009203E59120E0FBE4F592759480759304759201E59130E1FBE4F592E5A330E0F07C
:20020000EE30E136759328759201E59130E1FBE4F592E5A430E2F0759330759A03759203A5
:20022000E59120E0FBE4F5927593AC8B9A759203E59120E0FBE4F5928011759330759A004B
:20024000759203E59120E0FBE4F592EE30E205759CF38003759C737595D0759404759310A9
:20026000759D03759B70759A00759203E59120E0FBE4F592759408759203E59120E0FBE484
:20028000F592759404759304759201E59130E1FBE4F592E5A3F9EE30E051E930E1257594D1
:2002A00004E4F59DF59CF59BF59A759203E59120E0FBE4F592759408759203E59120E0FBA2
:2002C000E4F592759404E4F59DF59CF59B759A17759203E59120E0FBE4F5927594087592EB
:2002E00003E59120E0FBE4F5928051E920E126759404E4F59D759C02F59BF59A759203E59A
:200300009120E0FBE4F592759408759203E59120E0FBE4F592759404E4F59D759C02F59BC9
:20032000759A13759203E59120E0FBE4F592759408759203E59120E0FBE4F5927594087538
:20034000930C759201E59130E1FBE4F592E5A130E0F0759404759201E59130E1FBE4F59281
:20036000E5A130E0F07595A0759480759308E4F59D759C01F59BF59A759203E59120E0FB92
:20038000E4F592759304759201E59130E1FBE4F592E5A330E1ED759308E4F59D759C02F5DD
:2003A0009BF59A759203E59120E0FBE4F5927596FC759580759423759318E4F59DF59CF554
:2003C0009BF59A759203E59120E0FBE4F592759422759308759A01759203E59120E0FBE463
:2003E000F592759201E59130E1FBE4F592759A00759203E59120E0FBE4F592759424759357
:200400000C759201E59130E1FBE4F592E5A220E4BDEDFFEE30E101227595A075948075934A
:2004200028759201E59130E1FBE4F59285A49D85A39C85A29BE5A1C2E0F59A759203E5911C
:2004400020E0FBE4F592227596FC7595A07594907593C0E4F59DF59CF59B759A0175920351
:20046000E59120E0FBE4F5927593D0F59A759203E59120E0FBE4F5927593CC90501EE0F5AC
:200480009A759203E59120E0FBE4F5927593E0759A01759203E59120E0FBE4F5927593D422
:2004A000759203E59120E0FBE4F592759580759420759330759D08759A00759203E59120A2
:2004C000E0FBE4F592759318759201E59130E1FBE4F59285A19A759B05759203E59120E06C
:2004E000FBE4F592759340F59B759A20759203E59120E0FBE4F5927595A0759430759308B6
:20050000F59BF59A759203E59120E0FBE4F592759328759203E59120E0FBE4F59275930CAC
:20052000759203E59120E0FBE4F59275932C759203E59120E0FBE4F592759318905034E0A7
:20054000F59DA3E0F59CA3E0F59BA3E0F59A759203E59120E0FBE4F592759300759203E5F3
:200560009120E0FBE4F592A3759338E0F59DA3E0F59CA3E0F59BA3E0F59A759203E5912056
:20058000E0FBE4F592759320759203E59120E0FBE4F592759308F59DF59CF59B759AE275DE
:2005A0009203E59120E0FBE4F592759328759203E59120E0FBE4F592759480759300759C12
:2005C00003759A03759203E59120E0FBE4F592759481F59C759A01759203E59120E0FBE496
:2005E000F592759314F59A759203E59120E0FBE4F592759360759203E59120E0FBE4F59295
:20060000A3759320E0F59DA3E0F59CA3E0F59BA3E0F59A759203E59120E0FBE4F592A37566
:200620009324E0F59DA3E0F59CA3E0F59BA3E0F59A759203E59120E0FBE4F592A37593289F
:20064000E0F59DA3E0F59CA3E0F59BA3E0F59A759203E59120E0FBE4F592A375932CE0F55D
:200660009DA3E0F59CA3E0F59BA3E0F59A759203E59120E0FBE4F592A3759334E0F59DA3CA
:20068000E0F59CA3E0F59BA3E0F59A759203E59120E0FBE4F592A375936CE0F59DA3E0F5DD
:2006A0009CA3E0F59BA3E0F59A759203E59120E0FBE4F592759390759203E59120E0FBE49C
:2006C000F592A3759370E0F59DA3E0F59CA3E0F59BA3E0F59A759203E59120E0FBE4F592E7
:2006E000759394759203E59120E0FBE4F592A3759374E0F59DA3E0F59CA3E0F59BA3E0F548
:200700009A759203E59120E0FBE4F592759398759203E59120E0FBE4F592A3759378E0F5DB
:200720009DA3E0F59CA3E0F59BA3E0F59A759203E59120E0FBE4F59275939C759203E591D9
:2007400020E0FBE4F592A3759380E0F59DA3E0F59CA3E0F59BA3E0F59A759203E59120E0DD
:20076000FBE4F5927593A4759203E59120E0FBE4F592A3759482759320E0F59DA3E0F59CA5
:20078000A3E0F59BA3E0F59A759203E59120E0FBE4F592A3759324E0F59DA3E0F59CA3E076
:2007A000F59BA3E0F59A759203E59120E0FBE4F592A3759328E0F59DA3E0F59CA3E0F59B45
:2007C000A3E0F59A759203E59120E0FBE4F592A375932CE0F59DA3E0F59CA3E0F59BA3E02E
:2007E000F59A759203E59120E0FBE4F592759580759424759318759201E59130E1FBE4F54A
:2008000092E5A1F4540F905021F0FF7595A07594827593A0F4540323F59AE4F59DF59CF5A3
:200820009B759203E59120E0FBE4F5927593C0EFF4540C03F59A759203E59120E0FBE4F546
:200840009222EF30E40620E503020A0B8D207596FD75955130006975941F7593B0759DC55C
:20086000759CAC759BCE759A55759203E59120E0FBE4F59275941CF593F59DF59CF59B75BE
:200880009A03759203E59120E0FBE4F592759414759A8A759203E59120E0FBE4F592759331
:2008A00004759A8B759203E59120E0FBE4F59275941E759A27759203E59120E0FBE4F59271
:2008C00030016975943F7593B0759DC5759CAC759BCE759A55759203E59120E0FBE4F592C2
:2008E00075943CF593F59DF59CF59B759A03759203E59120E0FBE4F592759434759A8A7535
:200900009203E59120E0FBE4F592759304759A8B759203E59120E0FBE4F59275943E759A84
:2009200027759203E59120E0FBE4F59230026975945F7593B0759DC5759CAC759BCE759A6E
:2009400055759203E59120E0FBE4F59275945CF593F59DF59CF59B759A03759203E591200A
:20096000E0FBE4F592759454759A8A759203E59120E0FBE4F592759304759A8B759203E5C0
:200980009120E0FBE4F59275945E759A27759203E59120E0FBE4F59230036975947F7593B1
:2009A000B0759DC5759CAC759BCE759A55759203E59120E0FBE4F59275947CF593F59DF537
:2009C0009CF59B759A03759203E59120E0FBE4F592759474759A8A759203E59120E0FBE47E
:2009E000F592759304759A8B759203E59120E0FBE4F59275947E759A27759203E59120E0A7
:200A0000FBE4F592EFD2E4C2E5FF228D209050803000537596FD759551759410759300757A
:200A20009201E4F59DF59CF59BF59AE59130E1FBE4F592759203A8A3A9A2E59120E0FBE41B
:200A4000F592759304759201E59130E1FBE4F592759203C3E935A2F0A3E835A3F0A3E59125
:200A600020E0FBE4F592300144759430759300759201E59130E1FBE4F592759203A8A3A967
:200A8000A2E59120E0FBE4F592759304759201E59130E1FBE4F592759203C3E935A2F0A3B7
:200AA000E835A3F0A3E59120E0FBE4F592300244759450759300759201E59130E1FBE4F5CD
:200AC00092759203A8A3A9A2E59120E0FBE4F592759304759201E59130E1FBE4F592759200
:200AE00003C3E935A2F0A3E835A3F0A3E59120E0FBE4F592300344759470759300759201AE
:200B0000E59130E1FBE4F592759203A8A3A9A2E59120E0FBE4F592759304759201E59130B2
:200B2000E1FBE4F592759203C3E935A2F0A3E835A3F0A3E59120E0FBE4F592EFD2E5FF2258
:200B40007596FC7595A0759481759314E4F59DF59CF59BF59A759203E59120E0FBE4F59232
:200B600090507CF0A3F0905021E0F874602BF5837582037594827593ACE0F59A759203E5AF
:200B80009120E0FBE4F592D3E894035041A375948175931CE0F59DA3E0F59CA3E0F59BA3EE
:200BA000E0F59A759203E59120E0FBE4F592A3759330E4F59DF59CE0F59BA3E0F59A759275
:200BC00003E59120E0FBE4F592758210803F75820A759481759330E4F59DF59CE0F59BA393
:200BE000E0F59A759203E59120E0FBE4F592A375931CE0F59DA3E0F59CA3E0F59BA3E0F5C8
:200C00009AA3759203E59120E0FBE4F5927596FC7595A0759481759308E0F59DA3E0F59CE0
:200C2000A3E0F59BA3E0F59A759203E59120E0FBE4F59275930CA3E4F59DF59CE0F59BA3D8
:200C4000E0F59A759203E59120E0FBE4F592759310A3E0F59BA3E0F59AF9759203E5912069
:200C6000E0FBE4F592759480759308759A01759203E59120E0FBE4F59275930C759201E59E
:200C80009130E1FBE4F592759201E59130E1FBE4F592E5A2543F70E47595C075940075930E
:200CA00034759201E59130E1FBE4F592E5A1F8D3995030E82402F59AF8D399500D75920339
:200CC000E59120E0FBE4F59281B37595A0759481759304759A01759203E59120E0FBE4F560
:200CE00092A1A67595A0759481759310759201E59130E1FBE4F59285A49D85A39C85A29B8E
:200D0000889A759203E59120E0FBE4F592759481759304759A00759203E59120E0FBE4F5D2
:200D200092E5BA30E4FB7595C0759400759334E4F59DF59CF59BE89402F59AF8D399400D0F
:200D4000759203E59120E0FBE4F59280E97595A0759481759310759201E59130E1FBE4F595
:200D60009285A49D85A39C85A29B899A759203E59120E0FBE4F592759480759308E4F59D7D
:200D8000F59CF59B759A01759203E59120E0FBE4F592759481759304759A00759203E59117
:200DA00020E0FBE4F592EFD2E6C2E430E315D2E7FF759314759A03759203E59120E0FBE413
:200DC000F59222FF22905074E4F0A3F074702BF5837582027596FC7595A07594827593ECDE
:200DE000E4F59DF59CF59BE0F59A759203E59120E0FBE4F59275948375930CA3E0F59A75E0
:200E00009203E59120E0FBE4F592A3759481759368E0F59DA3E0F59CA3E0F59BA3E0F59A19
:200E2000759203E59120E0FBE4F592A375938CE0F59DA3E0F59CA3E0F59BA3E0F59A7592E3
:200E400003E59120E0FBE4F592A375937CE4F59DF59CE0F59BA3E0F59A759203E59120E083
:200E6000FBE4F5927593A0759203E59120E0FBE4F592A375935CE4F59DF59CE0F59BA3E07D
:200E8000F59AF9759203E59120E0FBE4F592A3759480759340759201E59130E1FBE4F5927B
:200EA000759481759358E0F59DA3E0F59CA3E0F59BA3E0F59AE5A17003439CE0759203E5F6
:200EC0009120E0FBE4F592759360E4F59DF59CF59BF59A759203E59120E0FBE4F59275949E
:200EE00080759308759A02759203E59120E0FBE4F59275930C759201E59130E1FBE4F59262
:200F0000E5A4540370EFE5A370EBE5A254C070E57595C0759400759344759201E59130E111
:200F2000FBE4F592E5A1F8D3995036E82402F59AF8D399500D759203E59120E0FBE4F59297
:200F400080E97595A0759481759354759A01759203E59120E0FBE4F592E5BA30E6FB0210E0
:200F6000207595A075948175935C759201E59130E1FBE4F59285A49D85A39C85A29B889A56
:200F8000759203E59120E0FBE4F592759354759A00759203E59120E0FBE4F592E5BA30E665
:200FA000FB7595C0759400759344E4F59DF59CF59BE89402F59AF8D399400D759203E59142
:200FC00020E0FBE4F59280E97595A075948175935C759201E59130E1FBE4F59285A49D856A
:200FE000A39C85A29B899A759203E59120E0FBE4F592759480759308F59DF59CF59B759A8C
:2010000002759203E59120E0FBE4F592759481759354759A00759203E59120E0FBE4F5920D
:20102000EFD2E6C2E430E315D2E7FF759360759A0F759203E59120E0FBE4F59222FF22C212
:20104000AFE4F59DF59CF59BF59A7596FC7595A0759481759314759203E59120E0FBE4F510
:2010600092759350759203E59120E0FBE4F592759360759203E59120E0FBE4F59290500270
:20108000E0905000F0A3F02460F583758210759308E0F59DA3E0F59CA3E0F59BA3E0F59A4F
:2010A000759203E59120E0FBE4F59275930CA3E4F59DF59CE0F59BA3E0F59A759203E5918A
:2010C00020E0FBE4F592759310759B01759A39759203E59120E0FBE4F592759480759308BA
:2010E000759A01759203E59120E0FBE4F59279397595C0759400759334759201E59130E1AA
:20110000FBE4F592E5A1F8D3995030E82402F59AF8D399500D759203E59120E0FBE4F592BB
:2011200080E97595A0759481759304759A01759203E59120E0FBE4F59221FE7595A075943E
:2011400081759310759201E59130E1FBE4F59285A49D85A39C85A29B889A759203E59120F3
:20116000E0FBE4F592759481759304759A00759203E59120E0FBE4F592E5BA30E4FB7595E6
:20118000C0759400759334E4F59DF59CF59BE89402F59AF8D399400D759203E59120E0FB7A
:2011A000E4F59280E97595A0759481759310759201E59130E1FBE4F59285A49D85A39C850B
:2011C000A29B899A759203E59120E0FBE4F592759480759308E4F59DF59CF59B759A017514
:2011E0009203E59120E0FBE4F592759481759304759A00759203E59120E0FBE4F592905013
:2012000020E0540FF0905024E0540FF0905028E0540FF075948075930874FFF59DF59CF5E5
:201220009BF59A759203E59120E0FBE4F59275930C759201E59130E1FBE4F592E5A45403B5
:2012400070EFE5A370EBE5A270E7E5A170E375B18175B10075BF00E5B160FC22905024E09C
:2012600030E614E5BA30E60AC2AFE054BFF0D2AF80051220F680E5905024E030E243E03055
:20128000E53F905004E0FF121FCA905005EFF0C2AF905024E054DFF0D2AF905015E0FF904B
:2012A0005005E0D39F40059050158010905014E0FF905005E0C39F5008905014E0905005B2
:2012C000F090502CE030E137905004E0FFA3E0C39F404890502CE030E441905016E0FF9014
:2012E0005004E0D39F4006E014A3F0802E905016E0FF905005E0D39F402190501680179043
:20130000502CE030E215905027E0FF905005E0C39F5008905027E0905005F0905005E0FF65
:20132000905004E06F70030213CFC2AF905024E020E0030213C7905017E0FF905005E0C391
:201340009F402C905017E0FF905004E09F50207596FC7595C0E4F59475936CF59DF59CF50F
:201360009B759A35759203E59120E0FBE4F592905024E0FF905004E0FDA3E0FB120DC59012
:201380005024EFF0905017E0FF905004E0C39F402C905017E0FF905005E09F50207596FCE1
:2013A0007595C0E4F59475936CF59DF59CF59B759A34759203E59120E0FBE4F592905005C1
:2013C000E0905004F08006905004E0A3F0D2AF1220F602125C905020E030E614E5BA30E4A6
:2013E0000AC2AFE054BFF0D2AF80051220F680E5905020E030E26AE030E566905000E0FF86
:20140000905021E0FD121EB7905001EFF0C2AF905020E054DFF0D2AF905011E0FF905001A1
:20142000E0D39F40059050118010905010E0FF905001E0C39F5008905010E0905001F09019
:201440005013E0FF905001E0C39F4015905021E0D39403400C905013E06006E0149050012D
:20146000F090502CE030E137905000E0FFA3E0C39F404890502CE030E441905012E0FF907A
:201480005000E0D39F4006E014A3F0802E905012E0FF905001E0D39F4021905012801790B1
:2014A000502CE030E215905023E0FF905001E0C39F5008905023E0905001F0905003E0FFD6
:2014C000905001E0C39F4018905007E0FF905004E09F400C905003E06006E014905001F02E
:2014E000905001E0FF905000E06F602FC2AF905020E030E01CE0FF905000E0FDA3E0FB12C5
:201500000B40905020EFF0905001E0905000F08006905000E0A3F0D2AF802BC2AF9050209A
:20152000E030E020E0548864086007E05488FFBF8012905020E0FF905000E0FD1217949017
:201540005020EFF0D2AF1220F60213D5C0E0C0F0C083C082C0D075D008E5BA30E02F75960E
:20156000FC7595A075943075930C759203E59120E0FB759200905020E030E011E030E20DF6
:20158000E0FFA3E0FD120842905020EFF0E5BA30E16C7596FC7595A075943075932C759270
:2015A00003E59120E0FB759200905024E030E00EE030E20AE0FF121A2F905024EFF09050B5
:2015C00028E030E00EE030E20AE0FF12188F905028EFF090502CE030E0247596FC7595A099
:2015E0007594907593EC759201E59130E1FB75920090502EE5A1F090502CE04420F0E5B96B
:2016000030E7737596FC7595A0759491759378759201E59130E1FB759200E5A1540F705635
:20162000E5B9540775F003A42470F582E43421F583740193FA740293F91220A07596FC7597
:2016400095A0759491759370759D00759C00759B00759A0F759203E59120E0FB75920075FB
:201660009201E59130E1FB75920085B9B175B10085B9BE75BE00D0D0D082D083D0F0D0E055
:2016800032905028E020E203021731E020E503021731905008E0FF121BA1905009EFF0C290
:2016A000AF905028E054DFF0D2AF90500BE0FF905000E0D39F401290500AE0FF905009E00F
:2016C0009F5006A3E0905009F0905019E0FF905009E0D39F40059050198010905018E0FF01
:2016E000905009E0C39F5008905018E0905009F090502CE030E13A905008E0FFA3E0C39FD3
:20170000402F90502CE030E42890501AE0FF905008E0D39F4006E014A3F0801590501AE0E3
:20172000FF905009E0D39F400890501AE0905009F0905009E0FF905008E06F6051905028BC
:20174000E0FF905020E05F30E03EC2AF7596FC7595A0759491759378759201E59130E1FB57
:20176000E4F592E5A1540F701BE5B97017905008E0FFA3E0FD120026905008EFF090502817
:20178000E054EFF0D2AF8006905008E0A3F01220F6021681EF20E31EC2E7FF7596FC75954A
:2017A000A0759481759314759A00759203E59120E0FBE4F59222905021E0F874602DF5837A
:2017C0007582037596FC7595A07594827593ACE4F59DF59CF59BE0F59A759203E59120E099
:2017E000FBE4F592D3E89403503EA375948175931CE0F59DA3E0F59CA3E0F59BA3E0F59AA7
:20180000759203E59120E0FBE4F592A3759330E4F59DF59CE0F59BA3E0F59A759203E591FE
:2018200020E0FBE4F592803E75820A759481759330E4F59DF59CE0F59BA3E0F59A7592032E
:20184000E59120E0FBE4F592A375931CE0F59DA3E0F59CA3E0F59BA3E0F59A759203E591BA
:2018600020E0FBE4F592759304759A01759203E59120E0FBE4F592759314759A03759203C8
:20188000E59120E0FBE4F592EFD2E7D2E6FF22EF30E40520E50201EC7596FC7595D0759405
:2018A00002759360E4759D70F59CF59BF59A759203E59120E0FBE4F592F59D7593647592BD
:2018C00003E59120E0FBE4F592759368759203E59120E0FBE4F59275936C759203E59120BF
:2018E000E0FBE4F592EFD2E4C2E5FF229050D07596FC7595D0759402759364759201E4F54C
:201900009DF59CF59BF59AE59130E1FBE4F592759203A8A3A9A2E59120E0FBE4F592759309
:2019200068759201E59130E1FBE4F592759203C3E935A2F0A3E835A3F0A3E59120E0FBE482
:20194000F59275936C759201E59130E1FBE4F592759203E5A3F0A3E5A4F0E59120E0FBE4A4
:20196000F592EFD2E5FF22EF30E020905800E0905010F0905801E0905011F0905802E0904E
:201980005012F0905803E0905013F0EF30E120905804E0905014F0905805E0905015F09035
:2019A0005806E0905016F0905807E0905017F0EF30E218905808E0905018F0905809E0901B
:2019C0005019F090580AE090501AF0EF30E35F90580CE090501CF090580CE090501DF09080
:2019E000580EE090501EF090580CE090501FF0C2AF7596FC7595A07594907593CC90501E63
:201A0000E0E4FCFDFEFF78181220798F9DE0E4FCFDFEFF781012208C8F9CE0E4F59BE0F551
:201A20009A759203E59120E0FBE4F592D2AF227596FC7595A0759491759370E4F59DF59CB9
:201A4000F59B759AF0759203E59120E0FBE4F592759378759201E59130E1FBE4F592E5A116
:201A600054F064F07009EF30E40B20E508419BEFC2E4C2E522E47596FAF595F59475937884
:201A8000F59DF59CF59BF59A759203E59120E0FBE4F592EFD2E4C2E5FF41D3E47596FAF5E1
:201AA00095F5947593789050C0759201E4F59DF59CF59BF59AE59130E1FBE4F592759203C3
:201AC000E5A2F0A3E5A3F0E59120E0FBE4F592EFD2E5FF7596FC7595A0759491759374E448
:201AE000F59DF59CF59B759AF0759203E59120E0FBE4F59222EF30E34F30E00EC2AF90506C
:201B000024E04404F0E054EF8008C2AF905024E054FBF0D2AFEF30E107C2AF905024804E7F
:201B2000905024E05477F0C2AF7596FC7595A0759481759360E4F59DF59CF59BF59A7592C5
:201B400003E59120E0FB8053EF30E00EC2AF905020E04404F0E054EF8008C2AF905020E0AC
:201B600054FBF0D2AFEF30E10CC2AF905020E04408F0D2AF22905020E05477F0C2AF759652
:201B8000FC7595A0759481759314E4F59DF59CF59BF59A759203E59120E0FBE4F592D2AF6C
:201BA000229050D0E0F9A3E0F8A3E0FBA3E0FA90500CE02420F582EF2478F583E0FCA3E01B
:201BC000FEE9D39EE89C401DE5822407F582E0FEA3E0FC905078E004F0D39C5004A3E4F000
:201BE00022EEFF805DA3E0FCA3E0FEEBD39EEA9C401DE5822405F582E0FEA3E0FC905078FE
:201C0000E004F0D39C5004A3E4F022EEFF8033A3E0FCA3E0D399EC984028A3E0FCA3E0D3C5
:201C20009BEC9A401DE5822403F582E0FEA3E0FC905079E004F0D39C5006758278E4F0226D
:201C4000EEFF905078E4F0A3F02290502CE020E503021CEA90502FE0FF90502EE0C39F502C
:201C60000EC2AF90502CE054EFF0E04420800CC2AF90502CE054DFF0E04410F0D2AF9050F1
:201C80002EE0A3F090502CE030E11790501CE0FF90502EE0C39F5047C2AF90502CE054FD1F
:201CA000803A90501DE0FF90502EE0D39F400EC2AF90502CE04402F0E054FB801F90501F80
:201CC000E0FF90502EE0C39F500AC2AF90502CE044048008C2AF90502CE054FBF0D2AFC26F
:201CE000AF90502CE054DFF0D2AF1220F6021C4AE4F5BFF5A87596FC75958075942175931D
:201D000004F59D759C1FF59BF59A759203E59120E0FBE4F59275B28075B303F5B4F5B5F5DE
:201D2000B675C34775C25675C18CF5C075BF0375BF017E207F3AFD1220CF7E1C7F4A0D1227
:201D400020CF7E137FD50D1220CF7E127F5C0D1220CF7E167F810D1220CF12044790502029
:201D6000E0FF905000E0FD905002E0FB120B40905020EFF0905002E0905001F0905000F06B
:201D800075A890E4F51085188122905020E0D2E0F030E73AC2E7F07596FC7595A0759481C6
:201DA000759314E4F59DF59CF59BF59A759203E59120E0FBE4F59275948075930C75920156
:201DC000E59130E1FBE4F592E5A2543F70EF7596FC759580759424759318759201E5913011
:201DE000E1FBE4F592E5A1F4540FA3F0FF7595A07594827593A0F4540323F59AE4F59DF5E8
:201E00009CF59B759203E59120E0FBE4F5927593C0EFF4540C03F59A759203E59120E0FB98
:201E2000E4F59222905020E0F820E702C1AB7596FC7595A0759481759314E4F59DF59CF575
:201E40009BF59A759203E59120E0FBE4F59275948075930C759201E59130E1FBE4F592E5FB
:201E6000A2543F70EFE5A1540F70E9905000E02460F583758217E0FFE47595C0F5947593A4
:201E800034F59DF59CF59B759201E59130E1FBE4F592AEA1EE2402F59AFED39F500D7592A0
:201EA00003E59120E0FBE4F59280E9905020E8544EF0A37401F022E4F8F99050807E048DF2
:201EC00020E0FBA3E0FA30000BEBD399EA984004EBF9EAF8A3E52003F520DEE590500CE01D
:201EE0002420F582EF2460F583E0FAA3E0FBE9D39BE89A401DE5822403F582E0FEA3E0FC4C
:201F000090507CE004F0D39C5004A3E4F022EEFF8028A3E0FAA3E0D399EA98401DE58224CA
:201F200003F582E0FEA3E0FC90507DE004F0D39C500675827CE4F022EEFF90507CE4F0A3AB
:201F4000F022905024E030E7207596FC7595A0759481759360E4F59DF59CF59BF59A759284
:201F600003E59120E0FBE4F592905024E0544EF07596FC7595A075948075930C759201E5D1
:201F80009130E1FBE4F592E5A45403FFEF70EDE5A370E9E5A254C070E3E5A154F070DD9098
:201FA0005006E0905004F0A3F07596FC7595A0759481759350E4F59DF59CF59BF59A7592C4
:201FC00003E59120E0FBE4F592229050C0E0F9A3E0F890500CE02420F582EF2470F583E0AA
:201FE000FAA3E0FBE9D39BE89A401DE5822403F582E0FEA3E0FC905074E004F0D39C5004E6
:20200000A3E4F022EEFF802AA3E0FAA3E0D399EA98401FE5822403F582E0FEA3E0FC905001
:2020200075E004F0D39C5006758274E4F022EEFF8000905074E4F0A3F022E5B96030E5B91B
:2020400020E72BE5B9540FFFE5B9C4540F75F003A42458F582E43421F583740193FA740261
:2020600093F5828A831220A485B9BEE4F5BE75BF0375BF011220F680C1E8600FECC313FCF6
:20208000ED13FDEE13FEEF13FFD8F122E86010ECA2E713FCED13FDEE13FEEF13FFD8F02295
:2020A0008A838982E4737596FC7595A0759481759350E4F59DF59CF59B759A01759203E588
:2020C0009120E0FBE4F592905024E04401F022EDC43354E02431FC74182DF8A604AC07ED6A
:2020E000C43354E02430F8A604AF06EDC43354E02431F8A6072274182510F8A6810510E5FC
:2021000010B40503E4F51074182510F8E6F58122905010E0FEEFC39E400DA3E0FEEFD39E87
:202120005005905001EFF022905014E0FEEFC39E400DA3E0FEEFD39E5005905005EFF022DD
:20214000905018E0FEEFC39E400DA3E0FEEFD39E5005905009EFF022FF1967FF2110FF211D
:2021600028FF2140FF21BAFF1AF5FF0003FF2188FF0020FF103FFF20A6FF1F42FF1D8AFF0E
:202180001E24FF21AAFF21B2EF6009C2AF90502C74018006C2AF90502CE4F0D2AF22787FA6
:2021A000E4F6D8FD7581CF021CF0905028E04401F022905028E054CEF02290500CEFF02255
:2021C0000000000000000000000000000000000000000000000000000000000000000000FF
:2021E0000000000000000000000000000000000000000000000000000000000000000000DF
:202200000000000000000000000000000000000000000000000000000000000000000000BE
:2022200000000000000000000000000000000000000000000000000000000000000000009E
:2050000001010105010101040202020300000000000701080004010300030200A0ACB93323
:205020000D0000010C000002050000000100000000000000000019640001FBD0554332112A
:205040000A998776554332110A99877600000004554332110A998776554332110A9987763B
:2050600000000080000FF69F000FF69F000FF69F000FF69F00000000000000000000000020
:20508000000000000000000000000000000000000000000000000000000000000000000010
:2050A0000000000000000000000000000000000000000000000000000000000000000000F0
:2050C0000000000000000000000000000000000000000000000000000000000000000000D0
:2050E0000000000000000000000000000000000000000000000000000000000000000000B0
:2060000000C800031551F09C162C162C1551F09C002804010111012B0000000000000000E2
:2060200002DB00F301010001000000000000000002DB00F3010100010000000000000000BA
:2060400002DB00F3040100010000000000000000030300F303050001000000000000000068
:20606000030300F3030100010000000000000000030300F303030001000000000000000022
:20608000030300F3030300010000000000000000030300F303030001000000000000000000
:2060A000030300F3030300010000000000000000030300F3030300010000000000000000E0
:2060C000030300F3030300010000000000000000030300F3030300010000000000000000C0
:2060E000030300F3030300010000000000000000028A00F30501000A000000000000000011
:2061000001900007154BF0A81A2C1A2C154BF0A800240401013301330000000000000000DA
:20612000051401E7040100020000000000000000051401E70401000200000000000000004F
:20614000047101E704010003000000000000000006070514030500010000000000000000AB
:20616000060705140301000100000000000000000607051403030032000000000000000096
:20618000060705140303003200000000000000000607051403030032000000000000000043
:2061A000060705140303003200000000000000000607051403030032000000000000000023
:2061C000060705140303003200000000000000000607051403030032000000000000000003
:2061E00006070514030300320000000000000000047101E70701010A0000000000000000D1
:206200000258000B154BF0D021AC21AC154BF0D0002406010155014200000000000000007B
:20622000079E02DB040101010000000000000000079E02DB0401010100000000000000004C
:2062400006AA02DB040101030000000000000000090B079E030501010000000000000000E5
:20626000090B079E030101010000000000000000090B079E0303010100000000000000009E
:20628000090B079E030301010000000000000000090B079E0303010100000000000000007C
:2062A000090B079E030301010000000000000000090B079E0303010100000000000000005C
:2062C000090B079E030301010000000000000000090B079E0303010100000000000000003C
:2062E000090B079E030301010000000000000000047101E70701010A00000000000000006D
:206300000320000F1540818027B127B315408188002408010177014E0000000000000000F1
:206320000A2805140401020100000000000000000A280514040102010000000000000000B7
:2063400008E305140401020A00000000000000000C0F0A28040A020A0000000000000000C1
:206360000C0F0A28040A021000000000000000000C0F0A2804030201000000000000000059
:206380000C0F0A280401020100000000000000000C0F0A2804010201000000000000000053
:2063A0000C0F0A280401020100000000000000000C0F0A2804010201000000000000000033
:2063C0000C0F0A280401020100000000000000000C0F0A2804010201000000000000000013
:2063E0000C0F0A28040102010000000000000000047101E70701020A0000000000000000D7
:2064000003E800111541D1402D362D381541F140002409010188015A0000000000000000B8
:206420000D9108910601030100000000000000000CDA089106010301000000000000000090
:206440000B6D08910601030A00000000000000000D910B6D051003100000000000000000D9
:206460000D910B6D0510030A00000000000000000D910B6D051003010000000000000000B5
:206480000D910B6D0510030100000000000000000D910B6D0510030100000000000000009E
:2064A0000D910B6D0510030100000000000000000D910B6D0510030100000000000000007E
:2064C0000D910B6D0510030100000000000000000D910B6D0510030100000000000000005E
:2064E0000D910B6D051003010000000000000000050301E70701030A000000000000000068
:2065000004B000171540B1D430C130C51540F1D400240B8102BB0161000000000000000007
:2065200012110AF307010401000000000000000012110AF307010401000000000000000001
:2065400012110AF307010401000000000000000012110E990710040A00000000000000001F
:2065600012110E990610040A000000000000000012110E990710040A00000000000000003E
:2065800012110E990710040A000000000000000012110E9907100401000000000000000026
:2065A00012110E990710040A000000000000000012110E990710040A0000000000000000FD
:2065C00012110E990710040A000000000000000012110E990710040A0000000000000000DD
:2065E00012110E990710040A0000000000000000047101E70710040A00000000000000002A
:206600000577001A154B21D430D430D4154B21D400240D4102DD016100000000000000007F
:2066200015060EED07010501000000000000000015060EED07010501000000000000000012
:2066400015060EED07010501000000000000000015060EED070105010000000000000000F2
:2066600015060EED07010501000000000000000015060EED070105010000000000000000D2
:2066800015060EED07010501000000000000000015060EED0701050A0000000000000000A9
:2066A00015060EED07010501000000000000000015060EED07010501000000000000000092
:2066C00015060EED07010501000000000000000015060EED07010501000000000000000072
:2066E00015060EED070105010000000000000000047101E70701050100000000000000000B
:206700000578001A154B21D030D430D4154B21D000240D8102DD0161000000000000000045
:20672000156C0EFF070105010000000000000000156C0EFF07010501000000000000000021
:20674000156C0EFF070105010000000000000000156C0EFF07010501000000000000000001
:20676000156C0EFF070105010000000000000000156C0EFF070105010000000000000000E1
:20678000156C0EFF070105010000000000000000156C0EFF070105010000000000000000C1
:2067A000156C0EFF070105010000000000000000156C0EFF070105010000000000000000A1
:2067C000156C0EFF070105010000000000000000156C0EFF07010501000000000000000081
:2067E000156C0EFF070105010000000000000000047101CE070105010000000000000000AB
:20680000000000000000000000000000000000000000000000000000000000000000000078
:20682000000000000000000000000000000000000000000000000000000000000000000058
:20684000000000000000000000000000000000000000000000000000000000000000000038
:20686000000000000000000000000000000000000000000000000000000000000000000018
:20700000003A0101153720CC157720CC162C022B00060C18000000000000000000000000EB
:207020000D2F05460101000100000000000000000D2F05460101000100000000000000003C
:207040000D2F05460101000100000000000000000D2F05460101000100000000000000001C
:207060000D2F05460101000100000000000000000D2F0546010100010000000000000000FC
:207080000D2F05460101000100000000000000000D2F0546010100010000000000000000DC
:2070A0000D2F05460101000100000000000000000D2F0546010100010000000000000000BC
:2070C0000D2F05460101000100000000000000000D2F05460101000100000000000000009C
:2070E0000D2F05460101000100000000000000000D2F054604010001000000000000000079
:2071000000780101152D202C156D202C162C022B0002C58B000000000000000000000000D8
:2071200022CA0AFC02010001000000000000000022CA0AFC02010001000000000000000063
:2071400022CA0AFC02010001000000000000000022CA0AFC02010001000000000000000043
:2071600022CA0AFC02010001000000000000000024410AFC020100010000000000000000AA
:2071800022CA0AFC02010001000000000000000022CA0AFC02010001000000000000000003
:2071A00022CA0AFC02010001000000000000000022CA0AFC020100010000000000000000E3
:2071C00022CA0AFC02010001000000000000000022CA0AFC020100010000000000000000C3
:2071E00022CA0AFC0201000100000000000000001D4C0AFC04010101000000000000000023
:2072000000F00303152B2030156B20301CAC0238000142850000000000000000000000004E
:2072200048821D4C02010101000000000000000048821D4C020101010000000000000000DE
:2072400048821D4C02010101000000000000000048821D4C020101010000000000000000BE
:2072600048821D4C02010101000000000000000048821D4C0201010100000000000000009E
:2072800048821D4C02010101000000000000000048821D4C0201010100000000000000007E
:2072A00048821D4C02010101000000000000000048821D4C0201010100000000000000005E
:2072C00048821D4C02010101000000000000000048821D4C0201010100000000000000003E
:2072E00048821D4C0201010100000000000000003A9815F90401020100000000000000006E
:20730000016805051525206015652060243302470000C18300000000000000000000000062
:207320006DDD36EE0401020100000000000000006DDD36EE04010201000000000000000061
:207340006DDD36EE0401020100000000000000006DDD36EE04010201000000000000000041
:207360006DDD36EE0401020100000000000000006DDD36EE04010201000000000000000021
:207380006DDD36EE0401020100000000000000006DDD36EE04010201000000000000000001
:2073A0006DDD36EE0401020100000000000000006DDD36EE040102010000000000000000E1
:2073C0006DDD36EE0401020100000000000000006DDD36EE040102010000000000000000C1
:2073E0006DDD36EE04010201000000000000000057E420F5040102010000000000000000BF
:2074000001E0070515292094156520602D43025A0000C18200000000000000000000000084
:20742000927C1193040103010000000000000000927C1193040103010000000000000000D6
:20744000927C1193040103010000000000000000927C1193040103010000000000000000B6
:20746000927C1193040103010000000000000000927C119304010301000000000000000096
:2074800075302BF204010301000000000000000075302BF204010301000000000000000056
:2074A00075302BF204010301000000000000000075302BF204010301000000000000000036
:2074C00075302BF204010301000000000000000075302BF204010301000000000000000016
:2074E00075302BF204010301000000000000000022CA0AFC040103010000000000000000C6
:2075000000000000000000000000000000000000000000000000000000000000000000006B
:2075200000000000000000000000000000000000000000000000000000000000000000004B
:2075400000000000000000000000000000000000000000000000000000000000000000002B
:2075600000000000000000000000000000000000000000000000000000000000000000000B
:207580000000000000000000000000000000000000000000000000000000000000000000EB
:2075A0000000000000000000000000000000000000000000000000000000000000000000CB
:2075C0000000000000000000000000000000000000000000000000000000000000000000AB
:2075E00000000000000000000000000000000000000000000000000000000000000000008B
:2076000000000000000000000000000000000000000000000000000000000000000000006A
:2076200000000000000000000000000000000000000000000000000000000000000000004A
:2076400000000000000000000000000000000000000000000000000000000000000000002A
:2076600000000000000000000000000000000000000000000000000000000000000000000A
:207680000000000000000000000000000000000000000000000000000000000000000000EA
:2076A0000000000000000000000000000000000000000000000000000000000000000000CA
:2076C0000000000000000000000000000000000000000000000000000000000000000000AA
:2076E00000000000000000000000000000000000000000000000000000000000000000008A
:20770000000000000000000000000000000000000000000000000000000000000000000069
:20772000000000000000000000000000000000000000000000000000000000000000000049
:20774000000000000000000000000000000000000000000000000000000000000000000029
:20776000000000000000000000000000000000000000000000000000000000000000000009
:207780000000000000000000000000000000000000000000000000000000000000000000E9
:2077A0000000000000000000000000000000000000000000000000000000000000000000C9
:2077C0000000000000000000000000000000000000000000000000000000000000000000A9
:2077E000000000000000000000000000000000000000000000000000000000000000000089
:20780000003A0018623305030A6558083280800E7FC3A0248010FF90000000000000000045
:20782000054600540000000002010001000000000546005400000000020100010000000002
:207840000546005400000000020100010000000005460054000000000201000100000000E2
:207860000546005400000000020100010000000005460054000000000201000100000000C2
:207880000546005400000000020100010000000005460054000000000201000100000000A2
:2078A000054600540000000002010001000000000546005400000000020100010000000082
:2078C000054600540000000002010001000000000546005400000000020100010000000062
:2078E000054600540000000002010001000000000546005400000000030100010000000041
:207900000078040B62330906126558103280801D7FC780244010FF90000000000000000045
:207920000CD100C503A9004102010002000000000AFC00AF03A9004102010002000000000C
:207940000AFC00AF03A9004102010002000000000AFC00AF03A900410201000200000000D9
:207960000AFC00C503A9004102010002000000000AFC00AF03A900410201000200000000A3
:207980000AFC00AF03A9004102010002000000000AFC00AF03A90041020100020000000099
:2079A0000AFC00AF03A9004102010002000000000AFC00AF03A90041020100020000000079
:2079C0000AFC00AF03A9004102010002000000000AFC00AF03A90041020100020000000059
:2079E0000AFC00AF03A9004102010002000000000545005303A90041030100010000000051
:207A000001680103648718103465582F648120567FD680342010FF900000000000000000A3
:207A20002BF2025107530083020A0101000000002BF2025107530083020A0106000000008B
:207A40002BF2025107530083020A010A000000002BF2025107530083020A01010000000067
:207A60002BF2025107530083020A0101000000002673025107530083020A010100000000D4
:207A8000267302510AFC00C5020A010100000000267302510AFC00C5020A0101000000005C
:207AA000267302510AFC00C5020A010100000000267302510AFC00C5020A0101000000003C
:207AC000267302510AFC00C5020A010100000000267302510AFC00C5020A0101000000001C
:207AE000267302510AFC00C5020A0101000000000545005403A90041030101010000000030
:207B000001C2030065A91E134065583B7581706B7FDC20441010FF90029D89D9009022092D
:207B2000895403371B77014903050205000000006DDD03371B7701490305020500000000D4
:207B4000895403371B7701490305020500000000895403371B770149030502050000000021
:207B6000895403371B7701490305020500000000895403371B770149030502050000000001
:207B8000895403371B7701490305020500000000895403371B7701490305020500000000E1
:207BA000895403371B7701490305020500000000895403371B7701490305020500000000C1
:207BC000895403371B7701490305020500000000895403371B7701490305020500000000A1
:207BE000895403371B77014903050205000000000545005403AA00410305022000000000CD
:207C0000000000000000000000000000000000000000000000000000000000000000000064
:207C2000000000000000000000000000000000000000000000000000000000000000000044
:207C4000000000000000000000000000000000000000000000000000000000000000000024
:207C6000000000000000000000000000000000000000000000000000000000000000000004
:207C80000000000000000000000000000000000000000000000000000000000000000000E4
:207CA0000000000000000000000000000000000000000000000000000000000000000000C4
:207CC0000000000000000000000000000000000000000000000000000000000000000000A4
:207CE000000000000000000000000000000000000000000000000000000000000000000084
:207D0000000000000000000000000000000000000000000000000000000000000000000063
:207D2000000000000000000000000000000000000000000000000000000000000000000043
:207D4000000000000000000000000000000000000000000000000000000000000000000023
:207D6000000000000000000000000000000000000000000000000000000000000000000003
:207D80000000000000000000000000000000000000000000000000000000000000000000E3
:207DA0000000000000000000000000000000000000000000000000000000000000000000C3
:207DC0000000000000000000000000000000000000000000000000000000000000000000A3
:207DE000000000000000000000000000000000000000000000000000000000000000000083
:207E0000000000000000000000000000000000000000000000000000000000000000000062
:207E2000000000000000000000000000000000000000000000000000000000000000000042
:207E4000000000000000000000000000000000000000000000000000000000000000000022
:207E6000000000000000000000000000000000000000000000000000000000000000000002
:207E80000000000000000000000000000000000000000000000000000000000000000000E2
:207EA0000000000000000000000000000000000000000000000000000000000000000000C2
:207EC0000000000000000000000000000000000000000000000000000000000000000000A2
:207EE000000000000000000000000000000000000000000000000000000000000000000082
:207F0000000000000000000000000000000000000000000000000000000000000000000061
:207F2000000000000000000000000000000000000000000000000000000000000000000041
:207F4000000000000000000000000000000000000000000000000000000000000000000021
:207F6000000000000000000000000000000000000000000000000000000000000000000001
:207F80000000000000000000000000000000000000000000000000000000000000000000E1
:207FA0000000000000000000000000000000000000000000000000000000000000000000C1
:207FC0000000000000000000000000000000000000000000000000000000000000000000A1
:207FE000000000000000000000000000000000000000000000000000000000000000000081
:00000001FF
